{
  "contractName": "DocuPay",
  "abi": [
    {
      "anonymous": false,
      "inputs": [
        {
          "indexed": true,
          "internalType": "address",
          "name": "previousOwner",
          "type": "address"
        }
      ],
      "name": "OwnershipRenounced",
      "type": "event"
    },
    {
      "anonymous": false,
      "inputs": [
        {
          "indexed": true,
          "internalType": "address",
          "name": "previousOwner",
          "type": "address"
        },
        {
          "indexed": true,
          "internalType": "address",
          "name": "newOwner",
          "type": "address"
        }
      ],
      "name": "OwnershipTransferred",
      "type": "event"
    },
    {
      "constant": true,
      "inputs": [
        {
          "internalType": "uint256",
          "name": "",
          "type": "uint256"
        }
      ],
      "name": "documents",
      "outputs": [
        {
          "internalType": "string",
          "name": "title",
          "type": "string"
        },
        {
          "internalType": "address payable",
          "name": "uploader",
          "type": "address"
        },
        {
          "internalType": "uint256",
          "name": "price",
          "type": "uint256"
        },
        {
          "internalType": "string",
          "name": "description",
          "type": "string"
        },
        {
          "internalType": "string",
          "name": "file",
          "type": "string"
        }
      ],
      "payable": false,
      "stateMutability": "view",
      "type": "function"
    },
    {
      "constant": true,
      "inputs": [
        {
          "internalType": "address",
          "name": "",
          "type": "address"
        },
        {
          "internalType": "uint256",
          "name": "",
          "type": "uint256"
        }
      ],
      "name": "documentsPublished",
      "outputs": [
        {
          "internalType": "uint256",
          "name": "",
          "type": "uint256"
        }
      ],
      "payable": false,
      "stateMutability": "view",
      "type": "function"
    },
    {
      "constant": true,
      "inputs": [
        {
          "internalType": "address",
          "name": "",
          "type": "address"
        },
        {
          "internalType": "uint256",
          "name": "",
          "type": "uint256"
        }
      ],
      "name": "documentsPurchased",
      "outputs": [
        {
          "internalType": "uint256",
          "name": "",
          "type": "uint256"
        }
      ],
      "payable": false,
      "stateMutability": "view",
      "type": "function"
    },
    {
      "constant": true,
      "inputs": [
        {
          "internalType": "address",
          "name": "",
          "type": "address"
        },
        {
          "internalType": "uint256",
          "name": "",
          "type": "uint256"
        }
      ],
      "name": "filesUploaded",
      "outputs": [
        {
          "internalType": "uint256",
          "name": "",
          "type": "uint256"
        }
      ],
      "payable": false,
      "stateMutability": "view",
      "type": "function"
    },
    {
      "constant": true,
      "inputs": [],
      "name": "owner",
      "outputs": [
        {
          "internalType": "address",
          "name": "",
          "type": "address"
        }
      ],
      "payable": false,
      "stateMutability": "view",
      "type": "function"
    },
    {
      "constant": true,
      "inputs": [],
      "name": "paused",
      "outputs": [
        {
          "internalType": "bool",
          "name": "",
          "type": "bool"
        }
      ],
      "payable": false,
      "stateMutability": "view",
      "type": "function"
    },
    {
      "constant": false,
      "inputs": [],
      "name": "renounceOwnership",
      "outputs": [],
      "payable": false,
      "stateMutability": "nonpayable",
      "type": "function"
    },
    {
      "constant": false,
      "inputs": [
        {
          "internalType": "address",
          "name": "_newOwner",
          "type": "address"
        }
      ],
      "name": "transferOwnership",
      "outputs": [],
      "payable": false,
      "stateMutability": "nonpayable",
      "type": "function"
    },
    {
      "constant": false,
      "inputs": [
        {
          "internalType": "string",
          "name": "ipfsHash",
          "type": "string"
        }
      ],
      "name": "setHash",
      "outputs": [],
      "payable": false,
      "stateMutability": "nonpayable",
      "type": "function"
    },
    {
      "constant": true,
      "inputs": [],
      "name": "getHash",
      "outputs": [
        {
          "internalType": "string",
          "name": "ipfsHash",
          "type": "string"
        }
      ],
      "payable": false,
      "stateMutability": "view",
      "type": "function"
    },
    {
      "constant": true,
      "inputs": [
        {
          "internalType": "uint256",
          "name": "i",
          "type": "uint256"
        }
      ],
      "name": "getDocument",
      "outputs": [
        {
          "components": [
            {
              "internalType": "string",
              "name": "title",
              "type": "string"
            },
            {
              "internalType": "address payable",
              "name": "uploader",
              "type": "address"
            },
            {
              "internalType": "uint256",
              "name": "price",
              "type": "uint256"
            },
            {
              "internalType": "string",
              "name": "description",
              "type": "string"
            },
            {
              "internalType": "string",
              "name": "file",
              "type": "string"
            }
          ],
          "internalType": "struct DocuPay.Document",
          "name": "",
          "type": "tuple"
        }
      ],
      "payable": false,
      "stateMutability": "view",
      "type": "function"
    },
    {
      "constant": true,
      "inputs": [
        {
          "internalType": "address",
          "name": "user",
          "type": "address"
        }
      ],
      "name": "getDocumentsPublishedTotal",
      "outputs": [
        {
          "internalType": "uint256",
          "name": "",
          "type": "uint256"
        }
      ],
      "payable": false,
      "stateMutability": "view",
      "type": "function"
    },
    {
      "constant": true,
      "inputs": [
        {
          "internalType": "address",
          "name": "user",
          "type": "address"
        },
        {
          "internalType": "uint256",
          "name": "i",
          "type": "uint256"
        }
      ],
      "name": "getDocumentsPublished",
      "outputs": [
        {
          "internalType": "uint256",
          "name": "",
          "type": "uint256"
        }
      ],
      "payable": false,
      "stateMutability": "view",
      "type": "function"
    },
    {
      "constant": true,
      "inputs": [
        {
          "internalType": "address",
          "name": "user",
          "type": "address"
        }
      ],
      "name": "getDocumentsPurchasedTotal",
      "outputs": [
        {
          "internalType": "uint256",
          "name": "",
          "type": "uint256"
        }
      ],
      "payable": false,
      "stateMutability": "view",
      "type": "function"
    },
    {
      "constant": true,
      "inputs": [
        {
          "internalType": "address",
          "name": "user",
          "type": "address"
        },
        {
          "internalType": "uint256",
          "name": "i",
          "type": "uint256"
        }
      ],
      "name": "getDocumentsPurchased",
      "outputs": [
        {
          "internalType": "uint256",
          "name": "",
          "type": "uint256"
        }
      ],
      "payable": false,
      "stateMutability": "view",
      "type": "function"
    },
    {
      "constant": false,
      "inputs": [
        {
          "internalType": "string",
          "name": "title",
          "type": "string"
        },
        {
          "internalType": "uint256",
          "name": "price",
          "type": "uint256"
        },
        {
          "internalType": "string",
          "name": "description",
          "type": "string"
        },
        {
          "internalType": "string",
          "name": "file",
          "type": "string"
        }
      ],
      "name": "publishDocument",
      "outputs": [],
      "payable": false,
      "stateMutability": "nonpayable",
      "type": "function"
    },
    {
      "constant": true,
      "inputs": [
        {
          "internalType": "uint256",
          "name": "i",
          "type": "uint256"
        }
      ],
      "name": "isDocumentPurchased",
      "outputs": [
        {
          "internalType": "bool",
          "name": "",
          "type": "bool"
        }
      ],
      "payable": false,
      "stateMutability": "view",
      "type": "function"
    },
    {
      "constant": false,
      "inputs": [
        {
          "internalType": "uint256",
          "name": "i",
          "type": "uint256"
        }
      ],
      "name": "purchaseDocument",
      "outputs": [],
      "payable": true,
      "stateMutability": "payable",
      "type": "function"
    },
    {
      "constant": false,
      "inputs": [],
      "name": "stopPause",
      "outputs": [],
      "payable": false,
      "stateMutability": "nonpayable",
      "type": "function"
    }
  ],
  "bytecode": "0x608060405260008060146101000a81548160ff021916908315150217905550336000806101000a81548173ffffffffffffffffffffffffffffffffffffffff021916908373ffffffffffffffffffffffffffffffffffffffff160217905550611cb88061006d6000396000f3fe6080604052600436106101145760003560e01c80639e26c3f1116100a0578063c2ed2b0511610064578063c2ed2b05146103b6578063d13319c4146103f7578063f10247bf14610422578063f2fde38b1461045f578063fdd9da3f1461048857610114565b80639e26c3f1146102ab5780639fcc468a146102c2578063a2691715146102ff578063b764ad921461033c578063c2ae79041461037957610114565b8063404f80e6116100e7578063404f80e6146101e55780635bb1ee4d146102015780635c975abb1461023e578063715018a6146102695780638da5cb5b1461028057610114565b806307bf2fd5146101195780631c239a5f146101425780631ed83fd41461017f5780633f9b250a146101a8575b600080fd5b34801561012557600080fd5b50610140600480360361013b919081019061168f565b6104c5565b005b34801561014e57600080fd5b5061016960048036036101649190810190611612565b6106f1565b6040516101769190611aee565b60405180910390f35b34801561018b57600080fd5b506101a660048036036101a1919081019061164e565b610750565b005b3480156101b457600080fd5b506101cf60048036036101ca919081019061173a565b61076a565b6040516101dc9190611acc565b60405180910390f35b6101ff60048036036101fa919081019061173a565b6109e5565b005b34801561020d57600080fd5b50610228600480360361022391908101906115e9565b610bd9565b6040516102359190611aee565b60405180910390f35b34801561024a57600080fd5b50610253610c25565b60405161026091906119c7565b60405180910390f35b34801561027557600080fd5b5061027e610c38565b005b34801561028c57600080fd5b50610295610d38565b6040516102a291906119ac565b60405180910390f35b3480156102b757600080fd5b506102c0610d5d565b005b3480156102ce57600080fd5b506102e960048036036102e4919081019061173a565b610dd2565b6040516102f691906119c7565b60405180910390f35b34801561030b57600080fd5b50610326600480360361032191908101906115e9565b610ea2565b6040516103339190611aee565b60405180910390f35b34801561034857600080fd5b50610363600480360361035e9190810190611612565b610eee565b6040516103709190611aee565b60405180910390f35b34801561038557600080fd5b506103a0600480360361039b9190810190611612565b610f1c565b6040516103ad9190611aee565b60405180910390f35b3480156103c257600080fd5b506103dd60048036036103d8919081019061173a565b610f7b565b6040516103ee959493929190611a04565b60405180910390f35b34801561040357600080fd5b5061040c6111a6565b60405161041991906119e2565b60405180910390f35b34801561042e57600080fd5b5061044960048036036104449190810190611612565b611248565b6040516104569190611aee565b60405180910390f35b34801561046b57600080fd5b50610486600480360361048191908101906115e9565b611276565b005b34801561049457600080fd5b506104af60048036036104aa9190810190611612565b6112db565b6040516104bc9190611aee565b60405180910390f35b600084511180156104d7575060148451105b610516576040517f08c379a000000000000000000000000000000000000000000000000000000000815260040161050d90611a6c565b60405180910390fd5b6000825111801561052957506127108251105b610568576040517f08c379a000000000000000000000000000000000000000000000000000000000815260040161055f90611a8c565b60405180910390fd5b60026040518060a001604052808681526020013373ffffffffffffffffffffffffffffffffffffffff168152602001858152602001848152602001838152509080600181540180825580915050906001820390600052602060002090600502016000909192909190915060008201518160000190805190602001906105ee929190611401565b5060208201518160010160006101000a81548173ffffffffffffffffffffffffffffffffffffffff021916908373ffffffffffffffffffffffffffffffffffffffff16021790555060408201518160020155606082015181600301908051906020019061065c929190611401565b506080820151816004019080519060200190610679929190611401565b50505050600460003373ffffffffffffffffffffffffffffffffffffffff1673ffffffffffffffffffffffffffffffffffffffff168152602001908152602001600020600280549050908060018154018082558091505090600182039060005260206000200160009091929091909150555050505050565b6000600460008473ffffffffffffffffffffffffffffffffffffffff1673ffffffffffffffffffffffffffffffffffffffff168152602001908152602001600020828154811061073d57fe5b9060005260206000200154905092915050565b8060019080519060200190610766929190611481565b5050565b610772611501565b6002828154811061077f57fe5b90600052602060002090600502016040518060a0016040529081600082018054600181600116156101000203166002900480601f0160208091040260200160405190810160405280929190818152602001828054600181600116156101000203166002900480156108315780601f1061080657610100808354040283529160200191610831565b820191906000526020600020905b81548152906001019060200180831161081457829003601f168201915b505050505081526020016001820160009054906101000a900473ffffffffffffffffffffffffffffffffffffffff1673ffffffffffffffffffffffffffffffffffffffff1673ffffffffffffffffffffffffffffffffffffffff16815260200160028201548152602001600382018054600181600116156101000203166002900480601f0160208091040260200160405190810160405280929190818152602001828054600181600116156101000203166002900480156109335780601f1061090857610100808354040283529160200191610933565b820191906000526020600020905b81548152906001019060200180831161091657829003601f168201915b50505050508152602001600482018054600181600116156101000203166002900480601f0160208091040260200160405190810160405280929190818152602001828054600181600116156101000203166002900480156109d55780601f106109aa576101008083540402835291602001916109d5565b820191906000526020600020905b8154815290600101906020018083116109b857829003601f168201915b5050505050815250509050919050565b600060149054906101000a900460ff16156109ff57600080fd5b60028181548110610a0c57fe5b906000526020600020906005020160010160009054906101000a900473ffffffffffffffffffffffffffffffffffffffff1673ffffffffffffffffffffffffffffffffffffffff163373ffffffffffffffffffffffffffffffffffffffff1614158015610a7f5750610a7d81610dd2565b155b610a8857600080fd5b60028181548110610a9557fe5b9060005260206000209060050201600201543414610ae8576040517f08c379a0000000000000000000000000000000000000000000000000000000008152600401610adf90611aac565b60405180910390fd5b60028181548110610af557fe5b906000526020600020906005020160010160009054906101000a900473ffffffffffffffffffffffffffffffffffffffff1673ffffffffffffffffffffffffffffffffffffffff166108fc349081150290604051600060405180830381858888f19350505050158015610b6c573d6000803e3d6000fd5b50600560003373ffffffffffffffffffffffffffffffffffffffff1673ffffffffffffffffffffffffffffffffffffffff16815260200190815260200160002081908060018154018082558091505090600182039060005260206000200160009091929091909150555050565b6000600560008373ffffffffffffffffffffffffffffffffffffffff1673ffffffffffffffffffffffffffffffffffffffff168152602001908152602001600020805490509050919050565b600060149054906101000a900460ff1681565b6000809054906101000a900473ffffffffffffffffffffffffffffffffffffffff1673ffffffffffffffffffffffffffffffffffffffff163373ffffffffffffffffffffffffffffffffffffffff1614610c9157600080fd5b6000809054906101000a900473ffffffffffffffffffffffffffffffffffffffff1673ffffffffffffffffffffffffffffffffffffffff167ff8df31144d9c2f0f6b59d69b8b98abd5459d07f2742c4df920b25aae33c6482060405160405180910390a260008060006101000a81548173ffffffffffffffffffffffffffffffffffffffff021916908373ffffffffffffffffffffffffffffffffffffffff160217905550565b6000809054906101000a900473ffffffffffffffffffffffffffffffffffffffff1681565b6000809054906101000a900473ffffffffffffffffffffffffffffffffffffffff1673ffffffffffffffffffffffffffffffffffffffff163373ffffffffffffffffffffffffffffffffffffffff1614610db657600080fd5b60008060146101000a81548160ff021916908315150217905550565b600080600090505b600560003373ffffffffffffffffffffffffffffffffffffffff1673ffffffffffffffffffffffffffffffffffffffff16815260200190815260200160002080549050811015610e975782600560003373ffffffffffffffffffffffffffffffffffffffff1673ffffffffffffffffffffffffffffffffffffffff1681526020019081526020016000208281548110610e6f57fe5b90600052602060002001541415610e8a576001915050610e9d565b8080600101915050610dda565b50600090505b919050565b6000600460008373ffffffffffffffffffffffffffffffffffffffff1673ffffffffffffffffffffffffffffffffffffffff168152602001908152602001600020805490509050919050565b60056020528160005260406000208181548110610f0757fe5b90600052602060002001600091509150505481565b6000600560008473ffffffffffffffffffffffffffffffffffffffff1673ffffffffffffffffffffffffffffffffffffffff1681526020019081526020016000208281548110610f6857fe5b9060005260206000200154905092915050565b60028181548110610f8857fe5b9060005260206000209060050201600091509050806000018054600181600116156101000203166002900480601f0160208091040260200160405190810160405280929190818152602001828054600181600116156101000203166002900480156110345780601f1061100957610100808354040283529160200191611034565b820191906000526020600020905b81548152906001019060200180831161101757829003601f168201915b5050505050908060010160009054906101000a900473ffffffffffffffffffffffffffffffffffffffff1690806002015490806003018054600181600116156101000203166002900480601f0160208091040260200160405190810160405280929190818152602001828054600181600116156101000203166002900480156110fe5780601f106110d3576101008083540402835291602001916110fe565b820191906000526020600020905b8154815290600101906020018083116110e157829003601f168201915b505050505090806004018054600181600116156101000203166002900480601f01602080910402602001604051908101604052809291908181526020018280546001816001161561010002031660029004801561119c5780601f106111715761010080835404028352916020019161119c565b820191906000526020600020905b81548152906001019060200180831161117f57829003601f168201915b5050505050905085565b606060018054600181600116156101000203166002900480601f01602080910402602001604051908101604052809291908181526020018280546001816001161561010002031660029004801561123e5780601f106112135761010080835404028352916020019161123e565b820191906000526020600020905b81548152906001019060200180831161122157829003601f168201915b5050505050905090565b6003602052816000526040600020818154811061126157fe5b90600052602060002001600091509150505481565b6000809054906101000a900473ffffffffffffffffffffffffffffffffffffffff1673ffffffffffffffffffffffffffffffffffffffff163373ffffffffffffffffffffffffffffffffffffffff16146112cf57600080fd5b6112d881611309565b50565b600460205281600052604060002081815481106112f457fe5b90600052602060002001600091509150505481565b600073ffffffffffffffffffffffffffffffffffffffff168173ffffffffffffffffffffffffffffffffffffffff16141561134357600080fd5b8073ffffffffffffffffffffffffffffffffffffffff166000809054906101000a900473ffffffffffffffffffffffffffffffffffffffff1673ffffffffffffffffffffffffffffffffffffffff167f8be0079c531659141344cd1fd0a4f28419497f9722a3daafe3b4186f6b6457e060405160405180910390a3806000806101000a81548173ffffffffffffffffffffffffffffffffffffffff021916908373ffffffffffffffffffffffffffffffffffffffff16021790555050565b828054600181600116156101000203166002900490600052602060002090601f016020900481019282601f1061144257805160ff1916838001178555611470565b82800160010185558215611470579182015b8281111561146f578251825591602001919060010190611454565b5b50905061147d9190611546565b5090565b828054600181600116156101000203166002900490600052602060002090601f016020900481019282601f106114c257805160ff19168380011785556114f0565b828001600101855582156114f0579182015b828111156114ef5782518255916020019190600101906114d4565b5b5090506114fd9190611546565b5090565b6040518060a0016040528060608152602001600073ffffffffffffffffffffffffffffffffffffffff1681526020016000815260200160608152602001606081525090565b61156891905b8082111561156457600081600090555060010161154c565b5090565b90565b60008135905061157a81611c47565b92915050565b600082601f83011261159157600080fd5b81356115a461159f82611b36565b611b09565b915080825260208301602083018583830111156115c057600080fd5b6115cb838284611bf4565b50505092915050565b6000813590506115e381611c5e565b92915050565b6000602082840312156115fb57600080fd5b60006116098482850161156b565b91505092915050565b6000806040838503121561162557600080fd5b60006116338582860161156b565b9250506020611644858286016115d4565b9150509250929050565b60006020828403121561166057600080fd5b600082013567ffffffffffffffff81111561167a57600080fd5b61168684828501611580565b91505092915050565b600080600080608085870312156116a557600080fd5b600085013567ffffffffffffffff8111156116bf57600080fd5b6116cb87828801611580565b94505060206116dc878288016115d4565b935050604085013567ffffffffffffffff8111156116f957600080fd5b61170587828801611580565b925050606085013567ffffffffffffffff81111561172257600080fd5b61172e87828801611580565b91505092959194509250565b60006020828403121561174c57600080fd5b600061175a848285016115d4565b91505092915050565b61176c81611bac565b82525050565b61177b81611bac565b82525050565b61178a81611b9a565b82525050565b61179981611bbe565b82525050565b60006117aa82611b6d565b6117b48185611b89565b93506117c4818560208601611c03565b6117cd81611c36565b840191505092915050565b60006117e382611b62565b6117ed8185611b78565b93506117fd818560208601611c03565b61180681611c36565b840191505092915050565b600061181c82611b62565b6118268185611b89565b9350611836818560208601611c03565b61183f81611c36565b840191505092915050565b6000611857601483611b89565b91507f496e76616c6964207469746c65206c656e6774680000000000000000000000006000830152602082019050919050565b6000611897601a83611b89565b91507f496e76616c6964206465736372697074696f6e206c656e6774680000000000006000830152602082019050919050565b60006118d7600d83611b89565b91507f496e76616c6964207072696365000000000000000000000000000000000000006000830152602082019050919050565b600060a083016000830151848203600086015261192782826117d8565b915050602083015161193c6020860182611763565b50604083015161194f604086018261198e565b506060830151848203606086015261196782826117d8565b9150506080830151848203608086015261198182826117d8565b9150508091505092915050565b61199781611bea565b82525050565b6119a681611bea565b82525050565b60006020820190506119c16000830184611781565b92915050565b60006020820190506119dc6000830184611790565b92915050565b600060208201905081810360008301526119fc818461179f565b905092915050565b600060a0820190508181036000830152611a1e8188611811565b9050611a2d6020830187611772565b611a3a604083018661199d565b8181036060830152611a4c8185611811565b90508181036080830152611a608184611811565b90509695505050505050565b60006020820190508181036000830152611a858161184a565b9050919050565b60006020820190508181036000830152611aa58161188a565b9050919050565b60006020820190508181036000830152611ac5816118ca565b9050919050565b60006020820190508181036000830152611ae6818461190a565b905092915050565b6000602082019050611b03600083018461199d565b92915050565b6000604051905081810181811067ffffffffffffffff82111715611b2c57600080fd5b8060405250919050565b600067ffffffffffffffff821115611b4d57600080fd5b601f19601f8301169050602081019050919050565b600081519050919050565b600081519050919050565b600082825260208201905092915050565b600082825260208201905092915050565b6000611ba582611bca565b9050919050565b6000611bb782611bca565b9050919050565b60008115159050919050565b600073ffffffffffffffffffffffffffffffffffffffff82169050919050565b6000819050919050565b82818337600083830152505050565b60005b83811015611c21578082015181840152602081019050611c06565b83811115611c30576000848401525b50505050565b6000601f19601f8301169050919050565b611c5081611b9a565b8114611c5b57600080fd5b50565b611c6781611bea565b8114611c7257600080fd5b5056fea365627a7a723158206a23f876bcfdfedbd6ee47dc9806d3d32abb59f257318db6c6695d3dd4cb1be76c6578706572696d656e74616cf564736f6c63430005100040",
  "source": "import \"../node_modules/zeppelin-solidity/contracts/math/SafeMath.sol\";\r\nimport \"../node_modules/zeppelin-solidity/contracts/ownership/Ownable.sol\";\r\n\r\n// SPDX-License-Identifier: MIT\r\npragma solidity >=0.5.16 <0.7.0;\r\npragma experimental ABIEncoderV2;\r\n\r\ncontract DocuPay is Ownable {\r\n  // Prevent integer overflow\r\n  using SafeMath for uint256;\r\n\r\n  // Circuit breaker to prevent user from transferring funds into the smart contract\r\n  bool public paused = false;\r\n\r\n  modifier setPause {\r\n    require(!paused);\r\n    _;\r\n  }\r\n\r\n  // Document structure\r\n  struct Document {\r\n    string title;\r\n    address payable uploader;\r\n    uint256 price;\r\n    string description;\r\n    string file;\r\n  }\r\n\r\n  string docupayHash;\r\n\r\n  // Store documents in an array\r\n  Document[] public documents;\r\n\r\n  // Users have libraries of their own to store their files they uploaded\r\n  mapping(address => uint256[]) public filesUploaded;\r\n\r\n  // Map users to an array of documents they've published\r\n  mapping(address => uint256[]) public documentsPublished;\r\n\r\n  // Map users to an array of documents they've purchased\r\n  mapping(address => uint256[]) public documentsPurchased;\r\n\r\n  // Setters\r\n  function setHash(string memory ipfsHash) public {\r\n    docupayHash = ipfsHash;\r\n  }\r\n\r\n  // Getters\r\n  function getHash() public view returns (string memory ipfsHash) {\r\n    return docupayHash;\r\n  }\r\n\r\n  function getDocument(uint256 i) public view returns (Document memory) {\r\n    return documents[i];\r\n  }\r\n\r\n  function getDocumentsPublishedTotal(address user) public view returns (uint256) {\r\n    return documentsPublished[user].length;\r\n  }\r\n\r\n  function getDocumentsPublished(address user, uint256 i) public view returns (uint256) {\r\n    return documentsPublished[user][i];\r\n  }\r\n\r\n  function getDocumentsPurchasedTotal(address user) public view returns (uint256) {\r\n    return documentsPurchased[user].length;\r\n  }\r\n\r\n  function getDocumentsPurchased(address user, uint256 i) public view returns (uint256) {\r\n    return documentsPurchased[user][i];\r\n  }\r\n\r\n  // Create/publish a document\r\n  function publishDocument(\r\n    string memory title,\r\n    uint256 price,\r\n    string memory description,\r\n    string memory file\r\n  ) public {\r\n    // Prevent the uploader from creating a title and description that's too short or long\r\n    require(bytes(title).length > 0 && bytes(title).length < 20, \"Invalid title length\");\r\n    require(bytes(description).length > 0 && bytes(description).length < 10000, \"Invalid description length\");\r\n\r\n    // Publish the document\r\n    documents.push(Document(title, msg.sender, price, description, file));\r\n    documentsPublished[msg.sender].push(documents.length);\r\n  }\r\n\r\n  // Determine whether a user has purchased the document already\r\n  // If so, they will not need to buy it again\r\n  function isDocumentPurchased(uint256 i) public view returns (bool) {\r\n    for (uint256 j = 0; j < documentsPurchased[msg.sender].length; j++) {\r\n      if (documentsPurchased[msg.sender][j] == i) return true;\r\n    }\r\n    return false;\r\n  }\r\n\r\n  // Publish and read/gain access to a document\r\n  function purchaseDocument(uint256 i) setPause public payable {\r\n    // Check if user has already bought this document\r\n    require(msg.sender != documents[i].uploader && !isDocumentPurchased(i));\r\n\r\n    // Check if user has enough ETH to purchase it\r\n    require(msg.value == documents[i].price, \"Invalid price\");\r\n\r\n    // Purchase the document\r\n    documents[i].uploader.transfer(msg.value);\r\n\r\n    // Add the newly purchased document to the user's library\r\n    documentsPurchased[msg.sender].push(i);\r\n  }\r\n\r\n  // Restricting access was achieved using OpenZeppelin's \"Ownable\" contract\r\n  // Only the account that deployed this contract can trigger and reset the circuit breaker\r\n  function stopPause() public onlyOwner {\r\n    paused = false;\r\n  }\r\n}",
  "sourcePath": "C:/Users/audre/Projects/docupay/contracts/DocuPay.sol",
  "compiler": {
    "name": "solc",
    "version": "0.5.16+commit.9c3226ce.Emscripten.clang"
  },
  "schemaVersion": "3.3.2",
  "updatedAt": "2020-12-24T06:20:18.529Z",
  "devdoc": {
    "methods": {
      "renounceOwnership()": {
        "details": "Allows the current owner to relinquish control of the contract."
      },
      "transferOwnership(address)": {
        "details": "Allows the current owner to transfer control of the contract to a newOwner.",
        "params": {
          "_newOwner": "The address to transfer ownership to."
        }
      }
    }
  },
  "userdoc": {
    "methods": {
      "renounceOwnership()": {
        "notice": "Renouncing to ownership will leave the contract without an owner. It will not be possible to call the functions with the `onlyOwner` modifier anymore."
      }
    }
  }
}