{
  "contractName": "DocuPay",
  "abi": [
    {
      "anonymous": false,
      "inputs": [
        {
          "indexed": true,
          "internalType": "address",
          "name": "previousOwner",
          "type": "address"
        }
      ],
      "name": "OwnershipRenounced",
      "type": "event"
    },
    {
      "anonymous": false,
      "inputs": [
        {
          "indexed": true,
          "internalType": "address",
          "name": "previousOwner",
          "type": "address"
        },
        {
          "indexed": true,
          "internalType": "address",
          "name": "newOwner",
          "type": "address"
        }
      ],
      "name": "OwnershipTransferred",
      "type": "event"
    },
    {
      "constant": true,
      "inputs": [
        {
          "internalType": "uint256",
          "name": "",
          "type": "uint256"
        }
      ],
      "name": "documents",
      "outputs": [
        {
          "internalType": "string",
          "name": "title",
          "type": "string"
        },
        {
          "internalType": "address payable",
          "name": "uploader",
          "type": "address"
        },
        {
          "internalType": "uint256",
          "name": "price",
          "type": "uint256"
        },
        {
          "internalType": "string",
          "name": "description",
          "type": "string"
        },
        {
          "internalType": "string",
          "name": "file",
          "type": "string"
        }
      ],
      "payable": false,
      "stateMutability": "view",
      "type": "function"
    },
    {
      "constant": true,
      "inputs": [
        {
          "internalType": "address",
          "name": "",
          "type": "address"
        },
        {
          "internalType": "uint256",
          "name": "",
          "type": "uint256"
        }
      ],
      "name": "documentsPublished",
      "outputs": [
        {
          "internalType": "uint256",
          "name": "",
          "type": "uint256"
        }
      ],
      "payable": false,
      "stateMutability": "view",
      "type": "function"
    },
    {
      "constant": true,
      "inputs": [
        {
          "internalType": "address",
          "name": "",
          "type": "address"
        },
        {
          "internalType": "uint256",
          "name": "",
          "type": "uint256"
        }
      ],
      "name": "documentsPurchased",
      "outputs": [
        {
          "internalType": "uint256",
          "name": "",
          "type": "uint256"
        }
      ],
      "payable": false,
      "stateMutability": "view",
      "type": "function"
    },
    {
      "constant": true,
      "inputs": [
        {
          "internalType": "address",
          "name": "",
          "type": "address"
        },
        {
          "internalType": "uint256",
          "name": "",
          "type": "uint256"
        }
      ],
      "name": "filesUploaded",
      "outputs": [
        {
          "internalType": "uint256",
          "name": "",
          "type": "uint256"
        }
      ],
      "payable": false,
      "stateMutability": "view",
      "type": "function"
    },
    {
      "constant": true,
      "inputs": [],
      "name": "owner",
      "outputs": [
        {
          "internalType": "address",
          "name": "",
          "type": "address"
        }
      ],
      "payable": false,
      "stateMutability": "view",
      "type": "function"
    },
    {
      "constant": true,
      "inputs": [],
      "name": "paused",
      "outputs": [
        {
          "internalType": "bool",
          "name": "",
          "type": "bool"
        }
      ],
      "payable": false,
      "stateMutability": "view",
      "type": "function"
    },
    {
      "constant": false,
      "inputs": [],
      "name": "renounceOwnership",
      "outputs": [],
      "payable": false,
      "stateMutability": "nonpayable",
      "type": "function"
    },
    {
      "constant": false,
      "inputs": [
        {
          "internalType": "address",
          "name": "_newOwner",
          "type": "address"
        }
      ],
      "name": "transferOwnership",
      "outputs": [],
      "payable": false,
      "stateMutability": "nonpayable",
      "type": "function"
    },
    {
      "constant": false,
      "inputs": [
        {
          "internalType": "string",
          "name": "ipfsHash",
          "type": "string"
        }
      ],
      "name": "setHash",
      "outputs": [],
      "payable": false,
      "stateMutability": "nonpayable",
      "type": "function"
    },
    {
      "constant": true,
      "inputs": [
        {
          "internalType": "address",
          "name": "owner",
          "type": "address"
        }
      ],
      "name": "getOwner",
      "outputs": [],
      "payable": false,
      "stateMutability": "view",
      "type": "function"
    },
    {
      "constant": true,
      "inputs": [],
      "name": "getHash",
      "outputs": [
        {
          "internalType": "string",
          "name": "ipfsHash",
          "type": "string"
        }
      ],
      "payable": false,
      "stateMutability": "view",
      "type": "function"
    },
    {
      "constant": true,
      "inputs": [
        {
          "internalType": "uint256",
          "name": "i",
          "type": "uint256"
        }
      ],
      "name": "getDocument",
      "outputs": [
        {
          "components": [
            {
              "internalType": "string",
              "name": "title",
              "type": "string"
            },
            {
              "internalType": "address payable",
              "name": "uploader",
              "type": "address"
            },
            {
              "internalType": "uint256",
              "name": "price",
              "type": "uint256"
            },
            {
              "internalType": "string",
              "name": "description",
              "type": "string"
            },
            {
              "internalType": "string",
              "name": "file",
              "type": "string"
            }
          ],
          "internalType": "struct DocuPay.Document",
          "name": "",
          "type": "tuple"
        }
      ],
      "payable": false,
      "stateMutability": "view",
      "type": "function"
    },
    {
      "constant": true,
      "inputs": [
        {
          "internalType": "address",
          "name": "user",
          "type": "address"
        }
      ],
      "name": "getDocumentsPublishedTotal",
      "outputs": [
        {
          "internalType": "uint256",
          "name": "",
          "type": "uint256"
        }
      ],
      "payable": false,
      "stateMutability": "view",
      "type": "function"
    },
    {
      "constant": true,
      "inputs": [
        {
          "internalType": "address",
          "name": "user",
          "type": "address"
        },
        {
          "internalType": "uint256",
          "name": "i",
          "type": "uint256"
        }
      ],
      "name": "getDocumentsPublished",
      "outputs": [
        {
          "internalType": "uint256",
          "name": "",
          "type": "uint256"
        }
      ],
      "payable": false,
      "stateMutability": "view",
      "type": "function"
    },
    {
      "constant": true,
      "inputs": [
        {
          "internalType": "address",
          "name": "user",
          "type": "address"
        }
      ],
      "name": "getDocumentsPurchasedTotal",
      "outputs": [
        {
          "internalType": "uint256",
          "name": "",
          "type": "uint256"
        }
      ],
      "payable": false,
      "stateMutability": "view",
      "type": "function"
    },
    {
      "constant": true,
      "inputs": [
        {
          "internalType": "address",
          "name": "user",
          "type": "address"
        },
        {
          "internalType": "uint256",
          "name": "i",
          "type": "uint256"
        }
      ],
      "name": "getDocumentsPurchased",
      "outputs": [
        {
          "internalType": "uint256",
          "name": "",
          "type": "uint256"
        }
      ],
      "payable": false,
      "stateMutability": "view",
      "type": "function"
    },
    {
      "constant": false,
      "inputs": [
        {
          "internalType": "string",
          "name": "title",
          "type": "string"
        },
        {
          "internalType": "uint256",
          "name": "price",
          "type": "uint256"
        },
        {
          "internalType": "string",
          "name": "description",
          "type": "string"
        },
        {
          "internalType": "string",
          "name": "file",
          "type": "string"
        }
      ],
      "name": "publishDocument",
      "outputs": [],
      "payable": false,
      "stateMutability": "nonpayable",
      "type": "function"
    },
    {
      "constant": true,
      "inputs": [
        {
          "internalType": "uint256",
          "name": "i",
          "type": "uint256"
        }
      ],
      "name": "isDocumentPurchased",
      "outputs": [
        {
          "internalType": "bool",
          "name": "",
          "type": "bool"
        }
      ],
      "payable": false,
      "stateMutability": "view",
      "type": "function"
    },
    {
      "constant": false,
      "inputs": [
        {
          "internalType": "uint256",
          "name": "i",
          "type": "uint256"
        }
      ],
      "name": "purchaseDocument",
      "outputs": [],
      "payable": true,
      "stateMutability": "payable",
      "type": "function"
    },
    {
      "constant": false,
      "inputs": [],
      "name": "stopPause",
      "outputs": [],
      "payable": false,
      "stateMutability": "nonpayable",
      "type": "function"
    }
  ],
  "bytecode": "0x608060405260008060146101000a81548160ff021916908315150217905550336000806101000a81548173ffffffffffffffffffffffffffffffffffffffff021916908373ffffffffffffffffffffffffffffffffffffffff160217905550611cf28061006d6000396000f3fe60806040526004361061011f5760003560e01c80639fcc468a116100a0578063d13319c411610064578063d13319c414610402578063f10247bf1461042d578063f2fde38b1461046a578063fa54416114610493578063fdd9da3f146104bc5761011f565b80639fcc468a146102cd578063a26917151461030a578063b764ad9214610347578063c2ae790414610384578063c2ed2b05146103c15761011f565b80635bb1ee4d116100e75780635bb1ee4d1461020c5780635c975abb14610249578063715018a6146102745780638da5cb5b1461028b5780639e26c3f1146102b65761011f565b806307bf2fd5146101245780631c239a5f1461014d5780631ed83fd41461018a5780633f9b250a146101b3578063404f80e6146101f0575b600080fd5b34801561013057600080fd5b5061014b600480360361014691908101906116c9565b6104f9565b005b34801561015957600080fd5b50610174600480360361016f919081019061164c565b610725565b6040516101819190611b28565b60405180910390f35b34801561019657600080fd5b506101b160048036036101ac9190810190611688565b610784565b005b3480156101bf57600080fd5b506101da60048036036101d59190810190611774565b61079e565b6040516101e79190611b06565b60405180910390f35b61020a60048036036102059190810190611774565b610a19565b005b34801561021857600080fd5b50610233600480360361022e9190810190611623565b610c0d565b6040516102409190611b28565b60405180910390f35b34801561025557600080fd5b5061025e610c59565b60405161026b9190611a01565b60405180910390f35b34801561028057600080fd5b50610289610c6c565b005b34801561029757600080fd5b506102a0610d6c565b6040516102ad91906119e6565b60405180910390f35b3480156102c257600080fd5b506102cb610d91565b005b3480156102d957600080fd5b506102f460048036036102ef9190810190611774565b610e06565b6040516103019190611a01565b60405180910390f35b34801561031657600080fd5b50610331600480360361032c9190810190611623565b610ed6565b60405161033e9190611b28565b60405180910390f35b34801561035357600080fd5b5061036e6004803603610369919081019061164c565b610f22565b60405161037b9190611b28565b60405180910390f35b34801561039057600080fd5b506103ab60048036036103a6919081019061164c565b610f50565b6040516103b89190611b28565b60405180910390f35b3480156103cd57600080fd5b506103e860048036036103e39190810190611774565b610faf565b6040516103f9959493929190611a3e565b60405180910390f35b34801561040e57600080fd5b506104176111da565b6040516104249190611a1c565b60405180910390f35b34801561043957600080fd5b50610454600480360361044f919081019061164c565b61127c565b6040516104619190611b28565b60405180910390f35b34801561047657600080fd5b50610491600480360361048c9190810190611623565b6112aa565b005b34801561049f57600080fd5b506104ba60048036036104b59190810190611623565b61130f565b005b3480156104c857600080fd5b506104e360048036036104de919081019061164c565b611315565b6040516104f09190611b28565b60405180910390f35b6000845111801561050b575060148451105b61054a576040517f08c379a000000000000000000000000000000000000000000000000000000000815260040161054190611aa6565b60405180910390fd5b6000825111801561055d57506127108251105b61059c576040517f08c379a000000000000000000000000000000000000000000000000000000000815260040161059390611ac6565b60405180910390fd5b60026040518060a001604052808681526020013373ffffffffffffffffffffffffffffffffffffffff1681526020018581526020018481526020018381525090806001815401808255809150509060018203906000526020600020906005020160009091929091909150600082015181600001908051906020019061062292919061143b565b5060208201518160010160006101000a81548173ffffffffffffffffffffffffffffffffffffffff021916908373ffffffffffffffffffffffffffffffffffffffff16021790555060408201518160020155606082015181600301908051906020019061069092919061143b565b5060808201518160040190805190602001906106ad92919061143b565b50505050600460003373ffffffffffffffffffffffffffffffffffffffff1673ffffffffffffffffffffffffffffffffffffffff168152602001908152602001600020600280549050908060018154018082558091505090600182039060005260206000200160009091929091909150555050505050565b6000600460008473ffffffffffffffffffffffffffffffffffffffff1673ffffffffffffffffffffffffffffffffffffffff168152602001908152602001600020828154811061077157fe5b9060005260206000200154905092915050565b806001908051906020019061079a9291906114bb565b5050565b6107a661153b565b600282815481106107b357fe5b90600052602060002090600502016040518060a0016040529081600082018054600181600116156101000203166002900480601f0160208091040260200160405190810160405280929190818152602001828054600181600116156101000203166002900480156108655780601f1061083a57610100808354040283529160200191610865565b820191906000526020600020905b81548152906001019060200180831161084857829003601f168201915b505050505081526020016001820160009054906101000a900473ffffffffffffffffffffffffffffffffffffffff1673ffffffffffffffffffffffffffffffffffffffff1673ffffffffffffffffffffffffffffffffffffffff16815260200160028201548152602001600382018054600181600116156101000203166002900480601f0160208091040260200160405190810160405280929190818152602001828054600181600116156101000203166002900480156109675780601f1061093c57610100808354040283529160200191610967565b820191906000526020600020905b81548152906001019060200180831161094a57829003601f168201915b50505050508152602001600482018054600181600116156101000203166002900480601f016020809104026020016040519081016040528092919081815260200182805460018160011615610100020316600290048015610a095780601f106109de57610100808354040283529160200191610a09565b820191906000526020600020905b8154815290600101906020018083116109ec57829003601f168201915b5050505050815250509050919050565b600060149054906101000a900460ff1615610a3357600080fd5b60028181548110610a4057fe5b906000526020600020906005020160010160009054906101000a900473ffffffffffffffffffffffffffffffffffffffff1673ffffffffffffffffffffffffffffffffffffffff163373ffffffffffffffffffffffffffffffffffffffff1614158015610ab35750610ab181610e06565b155b610abc57600080fd5b60028181548110610ac957fe5b9060005260206000209060050201600201543414610b1c576040517f08c379a0000000000000000000000000000000000000000000000000000000008152600401610b1390611ae6565b60405180910390fd5b60028181548110610b2957fe5b906000526020600020906005020160010160009054906101000a900473ffffffffffffffffffffffffffffffffffffffff1673ffffffffffffffffffffffffffffffffffffffff166108fc349081150290604051600060405180830381858888f19350505050158015610ba0573d6000803e3d6000fd5b50600560003373ffffffffffffffffffffffffffffffffffffffff1673ffffffffffffffffffffffffffffffffffffffff16815260200190815260200160002081908060018154018082558091505090600182039060005260206000200160009091929091909150555050565b6000600560008373ffffffffffffffffffffffffffffffffffffffff1673ffffffffffffffffffffffffffffffffffffffff168152602001908152602001600020805490509050919050565b600060149054906101000a900460ff1681565b6000809054906101000a900473ffffffffffffffffffffffffffffffffffffffff1673ffffffffffffffffffffffffffffffffffffffff163373ffffffffffffffffffffffffffffffffffffffff1614610cc557600080fd5b6000809054906101000a900473ffffffffffffffffffffffffffffffffffffffff1673ffffffffffffffffffffffffffffffffffffffff167ff8df31144d9c2f0f6b59d69b8b98abd5459d07f2742c4df920b25aae33c6482060405160405180910390a260008060006101000a81548173ffffffffffffffffffffffffffffffffffffffff021916908373ffffffffffffffffffffffffffffffffffffffff160217905550565b6000809054906101000a900473ffffffffffffffffffffffffffffffffffffffff1681565b6000809054906101000a900473ffffffffffffffffffffffffffffffffffffffff1673ffffffffffffffffffffffffffffffffffffffff163373ffffffffffffffffffffffffffffffffffffffff1614610dea57600080fd5b60008060146101000a81548160ff021916908315150217905550565b600080600090505b600560003373ffffffffffffffffffffffffffffffffffffffff1673ffffffffffffffffffffffffffffffffffffffff16815260200190815260200160002080549050811015610ecb5782600560003373ffffffffffffffffffffffffffffffffffffffff1673ffffffffffffffffffffffffffffffffffffffff1681526020019081526020016000208281548110610ea357fe5b90600052602060002001541415610ebe576001915050610ed1565b8080600101915050610e0e565b50600090505b919050565b6000600460008373ffffffffffffffffffffffffffffffffffffffff1673ffffffffffffffffffffffffffffffffffffffff168152602001908152602001600020805490509050919050565b60056020528160005260406000208181548110610f3b57fe5b90600052602060002001600091509150505481565b6000600560008473ffffffffffffffffffffffffffffffffffffffff1673ffffffffffffffffffffffffffffffffffffffff1681526020019081526020016000208281548110610f9c57fe5b9060005260206000200154905092915050565b60028181548110610fbc57fe5b9060005260206000209060050201600091509050806000018054600181600116156101000203166002900480601f0160208091040260200160405190810160405280929190818152602001828054600181600116156101000203166002900480156110685780601f1061103d57610100808354040283529160200191611068565b820191906000526020600020905b81548152906001019060200180831161104b57829003601f168201915b5050505050908060010160009054906101000a900473ffffffffffffffffffffffffffffffffffffffff1690806002015490806003018054600181600116156101000203166002900480601f0160208091040260200160405190810160405280929190818152602001828054600181600116156101000203166002900480156111325780601f1061110757610100808354040283529160200191611132565b820191906000526020600020905b81548152906001019060200180831161111557829003601f168201915b505050505090806004018054600181600116156101000203166002900480601f0160208091040260200160405190810160405280929190818152602001828054600181600116156101000203166002900480156111d05780601f106111a5576101008083540402835291602001916111d0565b820191906000526020600020905b8154815290600101906020018083116111b357829003601f168201915b5050505050905085565b606060018054600181600116156101000203166002900480601f0160208091040260200160405190810160405280929190818152602001828054600181600116156101000203166002900480156112725780601f1061124757610100808354040283529160200191611272565b820191906000526020600020905b81548152906001019060200180831161125557829003601f168201915b5050505050905090565b6003602052816000526040600020818154811061129557fe5b90600052602060002001600091509150505481565b6000809054906101000a900473ffffffffffffffffffffffffffffffffffffffff1673ffffffffffffffffffffffffffffffffffffffff163373ffffffffffffffffffffffffffffffffffffffff161461130357600080fd5b61130c81611343565b50565b33905050565b6004602052816000526040600020818154811061132e57fe5b90600052602060002001600091509150505481565b600073ffffffffffffffffffffffffffffffffffffffff168173ffffffffffffffffffffffffffffffffffffffff16141561137d57600080fd5b8073ffffffffffffffffffffffffffffffffffffffff166000809054906101000a900473ffffffffffffffffffffffffffffffffffffffff1673ffffffffffffffffffffffffffffffffffffffff167f8be0079c531659141344cd1fd0a4f28419497f9722a3daafe3b4186f6b6457e060405160405180910390a3806000806101000a81548173ffffffffffffffffffffffffffffffffffffffff021916908373ffffffffffffffffffffffffffffffffffffffff16021790555050565b828054600181600116156101000203166002900490600052602060002090601f016020900481019282601f1061147c57805160ff19168380011785556114aa565b828001600101855582156114aa579182015b828111156114a957825182559160200191906001019061148e565b5b5090506114b79190611580565b5090565b828054600181600116156101000203166002900490600052602060002090601f016020900481019282601f106114fc57805160ff191683800117855561152a565b8280016001018555821561152a579182015b8281111561152957825182559160200191906001019061150e565b5b5090506115379190611580565b5090565b6040518060a0016040528060608152602001600073ffffffffffffffffffffffffffffffffffffffff1681526020016000815260200160608152602001606081525090565b6115a291905b8082111561159e576000816000905550600101611586565b5090565b90565b6000813590506115b481611c81565b92915050565b600082601f8301126115cb57600080fd5b81356115de6115d982611b70565b611b43565b915080825260208301602083018583830111156115fa57600080fd5b611605838284611c2e565b50505092915050565b60008135905061161d81611c98565b92915050565b60006020828403121561163557600080fd5b6000611643848285016115a5565b91505092915050565b6000806040838503121561165f57600080fd5b600061166d858286016115a5565b925050602061167e8582860161160e565b9150509250929050565b60006020828403121561169a57600080fd5b600082013567ffffffffffffffff8111156116b457600080fd5b6116c0848285016115ba565b91505092915050565b600080600080608085870312156116df57600080fd5b600085013567ffffffffffffffff8111156116f957600080fd5b611705878288016115ba565b94505060206117168782880161160e565b935050604085013567ffffffffffffffff81111561173357600080fd5b61173f878288016115ba565b925050606085013567ffffffffffffffff81111561175c57600080fd5b611768878288016115ba565b91505092959194509250565b60006020828403121561178657600080fd5b60006117948482850161160e565b91505092915050565b6117a681611be6565b82525050565b6117b581611be6565b82525050565b6117c481611bd4565b82525050565b6117d381611bf8565b82525050565b60006117e482611ba7565b6117ee8185611bc3565b93506117fe818560208601611c3d565b61180781611c70565b840191505092915050565b600061181d82611b9c565b6118278185611bb2565b9350611837818560208601611c3d565b61184081611c70565b840191505092915050565b600061185682611b9c565b6118608185611bc3565b9350611870818560208601611c3d565b61187981611c70565b840191505092915050565b6000611891601483611bc3565b91507f496e76616c6964207469746c65206c656e6774680000000000000000000000006000830152602082019050919050565b60006118d1601a83611bc3565b91507f496e76616c6964206465736372697074696f6e206c656e6774680000000000006000830152602082019050919050565b6000611911600d83611bc3565b91507f496e76616c6964207072696365000000000000000000000000000000000000006000830152602082019050919050565b600060a08301600083015184820360008601526119618282611812565b9150506020830151611976602086018261179d565b50604083015161198960408601826119c8565b50606083015184820360608601526119a18282611812565b915050608083015184820360808601526119bb8282611812565b9150508091505092915050565b6119d181611c24565b82525050565b6119e081611c24565b82525050565b60006020820190506119fb60008301846117bb565b92915050565b6000602082019050611a1660008301846117ca565b92915050565b60006020820190508181036000830152611a3681846117d9565b905092915050565b600060a0820190508181036000830152611a58818861184b565b9050611a6760208301876117ac565b611a7460408301866119d7565b8181036060830152611a86818561184b565b90508181036080830152611a9a818461184b565b90509695505050505050565b60006020820190508181036000830152611abf81611884565b9050919050565b60006020820190508181036000830152611adf816118c4565b9050919050565b60006020820190508181036000830152611aff81611904565b9050919050565b60006020820190508181036000830152611b208184611944565b905092915050565b6000602082019050611b3d60008301846119d7565b92915050565b6000604051905081810181811067ffffffffffffffff82111715611b6657600080fd5b8060405250919050565b600067ffffffffffffffff821115611b8757600080fd5b601f19601f8301169050602081019050919050565b600081519050919050565b600081519050919050565b600082825260208201905092915050565b600082825260208201905092915050565b6000611bdf82611c04565b9050919050565b6000611bf182611c04565b9050919050565b60008115159050919050565b600073ffffffffffffffffffffffffffffffffffffffff82169050919050565b6000819050919050565b82818337600083830152505050565b60005b83811015611c5b578082015181840152602081019050611c40565b83811115611c6a576000848401525b50505050565b6000601f19601f8301169050919050565b611c8a81611bd4565b8114611c9557600080fd5b50565b611ca181611c24565b8114611cac57600080fd5b5056fea365627a7a72315820ad3acd79f1b3a3f388dabb008c4cc62c3c4e1cf25bef915aa9074cfcde977e866c6578706572696d656e74616cf564736f6c63430005100040",
  "source": "import \"../node_modules/zeppelin-solidity/contracts/math/SafeMath.sol\";\r\nimport \"../node_modules/zeppelin-solidity/contracts/ownership/Ownable.sol\";\r\n\r\n// SPDX-License-Identifier: MIT\r\npragma solidity >=0.5.16 <0.7.0;\r\npragma experimental ABIEncoderV2;\r\n\r\ncontract DocuPay is Ownable {\r\n  // Prevent integer overflow\r\n  using SafeMath for uint256;\r\n\r\n  // Circuit breaker to prevent user from transferring funds into the smart contract\r\n  bool public paused = false;\r\n\r\n  modifier setPause {\r\n    require(!paused);\r\n    _;\r\n  }\r\n\r\n  // Document structure\r\n  struct Document {\r\n    string title;\r\n    address payable uploader;\r\n    uint256 price;\r\n    string description;\r\n    string file;\r\n  }\r\n\r\n  string docupayHash;\r\n\r\n  // Store documents in an array\r\n  Document[] public documents;\r\n\r\n  // Users have libraries of their own to store their files they uploaded\r\n  mapping(address => uint256[]) public filesUploaded;\r\n\r\n  // Map users to an array of documents they've published\r\n  mapping(address => uint256[]) public documentsPublished;\r\n\r\n  // Map users to an array of documents they've purchased\r\n  mapping(address => uint256[]) public documentsPurchased;\r\n\r\n  // Setters\r\n  function setHash(string memory ipfsHash) public {\r\n    docupayHash = ipfsHash;\r\n  }\r\n\r\n  // Getters\r\n  function getOwner(address owner) public view {\r\n    owner = msg.sender;\r\n  }\r\n\r\n  function getHash() public view returns (string memory ipfsHash) {\r\n    return docupayHash;\r\n  }\r\n\r\n  function getDocument(uint256 i) public view returns (Document memory) {\r\n    return documents[i];\r\n  }\r\n\r\n  function getDocumentsPublishedTotal(address user) public view returns (uint256) {\r\n    return documentsPublished[user].length;\r\n  }\r\n\r\n  function getDocumentsPublished(address user, uint256 i) public view returns (uint256) {\r\n    return documentsPublished[user][i];\r\n  }\r\n\r\n  function getDocumentsPurchasedTotal(address user) public view returns (uint256) {\r\n    return documentsPurchased[user].length;\r\n  }\r\n\r\n  function getDocumentsPurchased(address user, uint256 i) public view returns (uint256) {\r\n    return documentsPurchased[user][i];\r\n  }\r\n\r\n  // Create/publish a document\r\n  function publishDocument(\r\n    string memory title,\r\n    uint256 price,\r\n    string memory description,\r\n    string memory file\r\n  ) public {\r\n    // Prevent the uploader from creating a title and description that's too short or long\r\n    require(bytes(title).length > 0 && bytes(title).length < 20, \"Invalid title length\");\r\n    require(bytes(description).length > 0 && bytes(description).length < 10000, \"Invalid description length\");\r\n\r\n    // Publish the document\r\n    documents.push(Document(title, msg.sender, price, description, file));\r\n    documentsPublished[msg.sender].push(documents.length);\r\n  }\r\n\r\n  // Determine whether a user has purchased the document already\r\n  // If so, they will not need to buy it again\r\n  function isDocumentPurchased(uint256 i) public view returns (bool) {\r\n    for (uint256 j = 0; j < documentsPurchased[msg.sender].length; j++) {\r\n      if (documentsPurchased[msg.sender][j] == i) return true;\r\n    }\r\n    return false;\r\n  }\r\n\r\n  // Publish and read/gain access to a document\r\n  function purchaseDocument(uint256 i) setPause public payable {\r\n    // Check if user has already bought this document\r\n    require(msg.sender != documents[i].uploader && !isDocumentPurchased(i));\r\n\r\n    // Check if user has enough ETH to purchase it\r\n    require(msg.value == documents[i].price, \"Invalid price\");\r\n\r\n    // Purchase the document\r\n    documents[i].uploader.transfer(msg.value);\r\n\r\n    // Add the newly purchased document to the user's library\r\n    documentsPurchased[msg.sender].push(i);\r\n  }\r\n\r\n  // Restricting access was achieved using OpenZeppelin's \"Ownable\" contract\r\n  // Only the account that deployed this contract can trigger and reset the circuit breaker\r\n  function stopPause() public onlyOwner {\r\n    paused = false;\r\n  }\r\n}",
  "sourcePath": "C:/Users/audre/Projects/docupay/contracts/DocuPay.sol",
  "compiler": {
    "name": "solc",
    "version": "0.5.16+commit.9c3226ce.Emscripten.clang"
  },
  "schemaVersion": "3.3.2",
  "updatedAt": "2020-12-25T05:55:12.721Z",
  "devdoc": {
    "methods": {
      "renounceOwnership()": {
        "details": "Allows the current owner to relinquish control of the contract."
      },
      "transferOwnership(address)": {
        "details": "Allows the current owner to transfer control of the contract to a newOwner.",
        "params": {
          "_newOwner": "The address to transfer ownership to."
        }
      }
    }
  },
  "userdoc": {
    "methods": {
      "renounceOwnership()": {
        "notice": "Renouncing to ownership will leave the contract without an owner. It will not be possible to call the functions with the `onlyOwner` modifier anymore."
      }
    }
  }
}