{
  "contractName": "DocuPay",
  "abi": [
    {
      "inputs": [
        {
          "internalType": "uint256",
          "name": "",
          "type": "uint256"
        }
      ],
      "name": "comments",
      "outputs": [
        {
          "internalType": "uint256",
          "name": "commentId",
          "type": "uint256"
        },
        {
          "internalType": "address",
          "name": "commenter",
          "type": "address"
        },
        {
          "internalType": "uint256",
          "name": "date",
          "type": "uint256"
        },
        {
          "internalType": "string",
          "name": "commentMsg",
          "type": "string"
        },
        {
          "internalType": "uint256",
          "name": "likes",
          "type": "uint256"
        }
      ],
      "stateMutability": "view",
      "type": "function",
      "constant": true
    },
    {
      "inputs": [
        {
          "internalType": "address",
          "name": "",
          "type": "address"
        },
        {
          "internalType": "uint256",
          "name": "",
          "type": "uint256"
        }
      ],
      "name": "commentsLiked",
      "outputs": [
        {
          "internalType": "uint256",
          "name": "",
          "type": "uint256"
        }
      ],
      "stateMutability": "view",
      "type": "function",
      "constant": true
    },
    {
      "inputs": [
        {
          "internalType": "uint256",
          "name": "",
          "type": "uint256"
        },
        {
          "internalType": "uint256",
          "name": "",
          "type": "uint256"
        }
      ],
      "name": "commentsOnDocument",
      "outputs": [
        {
          "internalType": "uint256",
          "name": "",
          "type": "uint256"
        }
      ],
      "stateMutability": "view",
      "type": "function",
      "constant": true
    },
    {
      "inputs": [
        {
          "internalType": "uint256",
          "name": "",
          "type": "uint256"
        }
      ],
      "name": "documents",
      "outputs": [
        {
          "internalType": "uint256",
          "name": "docId",
          "type": "uint256"
        },
        {
          "internalType": "address payable",
          "name": "uploader",
          "type": "address"
        },
        {
          "internalType": "string",
          "name": "title",
          "type": "string"
        },
        {
          "internalType": "uint256",
          "name": "date",
          "type": "uint256"
        },
        {
          "internalType": "string",
          "name": "description",
          "type": "string"
        },
        {
          "internalType": "uint256",
          "name": "fee",
          "type": "uint256"
        },
        {
          "internalType": "string",
          "name": "file",
          "type": "string"
        },
        {
          "internalType": "uint256",
          "name": "votes",
          "type": "uint256"
        },
        {
          "internalType": "uint256",
          "name": "favourites",
          "type": "uint256"
        }
      ],
      "stateMutability": "view",
      "type": "function",
      "constant": true
    },
    {
      "inputs": [
        {
          "internalType": "address",
          "name": "",
          "type": "address"
        },
        {
          "internalType": "uint256",
          "name": "",
          "type": "uint256"
        }
      ],
      "name": "documentsDownvoted",
      "outputs": [
        {
          "internalType": "uint256",
          "name": "",
          "type": "uint256"
        }
      ],
      "stateMutability": "view",
      "type": "function",
      "constant": true
    },
    {
      "inputs": [
        {
          "internalType": "address",
          "name": "",
          "type": "address"
        },
        {
          "internalType": "uint256",
          "name": "",
          "type": "uint256"
        }
      ],
      "name": "documentsFavourited",
      "outputs": [
        {
          "internalType": "uint256",
          "name": "",
          "type": "uint256"
        }
      ],
      "stateMutability": "view",
      "type": "function",
      "constant": true
    },
    {
      "inputs": [
        {
          "internalType": "address",
          "name": "",
          "type": "address"
        },
        {
          "internalType": "uint256",
          "name": "",
          "type": "uint256"
        }
      ],
      "name": "documentsPurchased",
      "outputs": [
        {
          "internalType": "uint256",
          "name": "",
          "type": "uint256"
        }
      ],
      "stateMutability": "view",
      "type": "function",
      "constant": true
    },
    {
      "inputs": [
        {
          "internalType": "address",
          "name": "",
          "type": "address"
        },
        {
          "internalType": "uint256",
          "name": "",
          "type": "uint256"
        }
      ],
      "name": "documentsUploaded",
      "outputs": [
        {
          "internalType": "uint256",
          "name": "",
          "type": "uint256"
        }
      ],
      "stateMutability": "view",
      "type": "function",
      "constant": true
    },
    {
      "inputs": [
        {
          "internalType": "address",
          "name": "",
          "type": "address"
        },
        {
          "internalType": "uint256",
          "name": "",
          "type": "uint256"
        }
      ],
      "name": "documentsUpvoted",
      "outputs": [
        {
          "internalType": "uint256",
          "name": "",
          "type": "uint256"
        }
      ],
      "stateMutability": "view",
      "type": "function",
      "constant": true
    },
    {
      "inputs": [
        {
          "internalType": "address",
          "name": "",
          "type": "address"
        }
      ],
      "name": "name",
      "outputs": [
        {
          "internalType": "string",
          "name": "",
          "type": "string"
        }
      ],
      "stateMutability": "view",
      "type": "function",
      "constant": true
    },
    {
      "inputs": [
        {
          "internalType": "address",
          "name": "",
          "type": "address"
        }
      ],
      "name": "reputation",
      "outputs": [
        {
          "internalType": "uint256",
          "name": "",
          "type": "uint256"
        }
      ],
      "stateMutability": "view",
      "type": "function",
      "constant": true
    },
    {
      "inputs": [
        {
          "internalType": "uint256",
          "name": "docId",
          "type": "uint256"
        }
      ],
      "name": "getDocumentById",
      "outputs": [
        {
          "components": [
            {
              "internalType": "uint256",
              "name": "docId",
              "type": "uint256"
            },
            {
              "internalType": "address payable",
              "name": "uploader",
              "type": "address"
            },
            {
              "internalType": "string",
              "name": "title",
              "type": "string"
            },
            {
              "internalType": "uint256",
              "name": "date",
              "type": "uint256"
            },
            {
              "internalType": "string",
              "name": "description",
              "type": "string"
            },
            {
              "internalType": "uint256",
              "name": "fee",
              "type": "uint256"
            },
            {
              "internalType": "string",
              "name": "file",
              "type": "string"
            },
            {
              "internalType": "uint256",
              "name": "votes",
              "type": "uint256"
            },
            {
              "internalType": "uint256",
              "name": "favourites",
              "type": "uint256"
            }
          ],
          "internalType": "struct DocuPay.Document",
          "name": "",
          "type": "tuple"
        }
      ],
      "stateMutability": "view",
      "type": "function",
      "constant": true
    },
    {
      "inputs": [
        {
          "internalType": "address",
          "name": "user",
          "type": "address"
        }
      ],
      "name": "getName",
      "outputs": [
        {
          "internalType": "string",
          "name": "",
          "type": "string"
        }
      ],
      "stateMutability": "view",
      "type": "function",
      "constant": true
    },
    {
      "inputs": [
        {
          "internalType": "address",
          "name": "user",
          "type": "address"
        }
      ],
      "name": "getReputation",
      "outputs": [
        {
          "internalType": "uint256",
          "name": "",
          "type": "uint256"
        }
      ],
      "stateMutability": "view",
      "type": "function",
      "constant": true
    },
    {
      "inputs": [],
      "name": "getTotalDocumentsCount",
      "outputs": [
        {
          "internalType": "uint256",
          "name": "",
          "type": "uint256"
        }
      ],
      "stateMutability": "view",
      "type": "function",
      "constant": true
    },
    {
      "inputs": [
        {
          "internalType": "address",
          "name": "user",
          "type": "address"
        }
      ],
      "name": "getDocumentsUploadedCount",
      "outputs": [
        {
          "internalType": "uint256",
          "name": "",
          "type": "uint256"
        }
      ],
      "stateMutability": "view",
      "type": "function",
      "constant": true
    },
    {
      "inputs": [
        {
          "internalType": "address",
          "name": "user",
          "type": "address"
        },
        {
          "internalType": "uint256",
          "name": "docIndex",
          "type": "uint256"
        }
      ],
      "name": "getDocumentUploaded",
      "outputs": [
        {
          "internalType": "uint256",
          "name": "",
          "type": "uint256"
        }
      ],
      "stateMutability": "view",
      "type": "function",
      "constant": true
    },
    {
      "inputs": [
        {
          "internalType": "address",
          "name": "user",
          "type": "address"
        }
      ],
      "name": "getDocumentsPurchasedCount",
      "outputs": [
        {
          "internalType": "uint256",
          "name": "",
          "type": "uint256"
        }
      ],
      "stateMutability": "view",
      "type": "function",
      "constant": true
    },
    {
      "inputs": [
        {
          "internalType": "address",
          "name": "user",
          "type": "address"
        },
        {
          "internalType": "uint256",
          "name": "docIndex",
          "type": "uint256"
        }
      ],
      "name": "getDocumentPurchased",
      "outputs": [
        {
          "internalType": "uint256",
          "name": "",
          "type": "uint256"
        }
      ],
      "stateMutability": "view",
      "type": "function",
      "constant": true
    },
    {
      "inputs": [
        {
          "internalType": "address",
          "name": "user",
          "type": "address"
        }
      ],
      "name": "getDocumentsFavouritedCount",
      "outputs": [
        {
          "internalType": "uint256",
          "name": "",
          "type": "uint256"
        }
      ],
      "stateMutability": "view",
      "type": "function",
      "constant": true
    },
    {
      "inputs": [
        {
          "internalType": "address",
          "name": "user",
          "type": "address"
        },
        {
          "internalType": "uint256",
          "name": "docIndex",
          "type": "uint256"
        }
      ],
      "name": "getDocumentFavourited",
      "outputs": [
        {
          "internalType": "uint256",
          "name": "",
          "type": "uint256"
        }
      ],
      "stateMutability": "view",
      "type": "function",
      "constant": true
    },
    {
      "inputs": [
        {
          "internalType": "uint256",
          "name": "commentId",
          "type": "uint256"
        }
      ],
      "name": "getCommentById",
      "outputs": [
        {
          "components": [
            {
              "internalType": "uint256",
              "name": "commentId",
              "type": "uint256"
            },
            {
              "internalType": "address",
              "name": "commenter",
              "type": "address"
            },
            {
              "internalType": "uint256",
              "name": "date",
              "type": "uint256"
            },
            {
              "internalType": "string",
              "name": "commentMsg",
              "type": "string"
            },
            {
              "internalType": "uint256",
              "name": "likes",
              "type": "uint256"
            }
          ],
          "internalType": "struct DocuPay.Comment",
          "name": "",
          "type": "tuple"
        }
      ],
      "stateMutability": "view",
      "type": "function",
      "constant": true
    },
    {
      "inputs": [
        {
          "internalType": "uint256",
          "name": "docId",
          "type": "uint256"
        }
      ],
      "name": "getCommentCount",
      "outputs": [
        {
          "internalType": "uint256",
          "name": "",
          "type": "uint256"
        }
      ],
      "stateMutability": "view",
      "type": "function",
      "constant": true
    },
    {
      "inputs": [
        {
          "internalType": "uint256",
          "name": "docId",
          "type": "uint256"
        },
        {
          "internalType": "uint256",
          "name": "commentId",
          "type": "uint256"
        }
      ],
      "name": "getCommentOnDocument",
      "outputs": [
        {
          "internalType": "uint256",
          "name": "",
          "type": "uint256"
        }
      ],
      "stateMutability": "view",
      "type": "function",
      "constant": true
    },
    {
      "inputs": [
        {
          "internalType": "string",
          "name": "newName",
          "type": "string"
        }
      ],
      "name": "changeName",
      "outputs": [],
      "stateMutability": "nonpayable",
      "type": "function"
    },
    {
      "inputs": [
        {
          "internalType": "string",
          "name": "title",
          "type": "string"
        },
        {
          "internalType": "uint256",
          "name": "date",
          "type": "uint256"
        },
        {
          "internalType": "string",
          "name": "description",
          "type": "string"
        },
        {
          "internalType": "uint256",
          "name": "fee",
          "type": "uint256"
        },
        {
          "internalType": "string",
          "name": "file",
          "type": "string"
        }
      ],
      "name": "uploadDocument",
      "outputs": [],
      "stateMutability": "nonpayable",
      "type": "function"
    },
    {
      "inputs": [
        {
          "internalType": "uint256",
          "name": "docId",
          "type": "uint256"
        }
      ],
      "name": "purchaseDocument",
      "outputs": [],
      "stateMutability": "nonpayable",
      "type": "function"
    },
    {
      "inputs": [
        {
          "internalType": "address",
          "name": "user",
          "type": "address"
        },
        {
          "internalType": "uint256",
          "name": "docId",
          "type": "uint256"
        }
      ],
      "name": "isDocumentPurchased",
      "outputs": [
        {
          "internalType": "bool",
          "name": "",
          "type": "bool"
        }
      ],
      "stateMutability": "view",
      "type": "function",
      "constant": true
    },
    {
      "inputs": [
        {
          "internalType": "address",
          "name": "user",
          "type": "address"
        },
        {
          "internalType": "uint256",
          "name": "docId",
          "type": "uint256"
        }
      ],
      "name": "canView",
      "outputs": [
        {
          "internalType": "bool",
          "name": "",
          "type": "bool"
        }
      ],
      "stateMutability": "view",
      "type": "function",
      "constant": true
    },
    {
      "inputs": [
        {
          "internalType": "uint256",
          "name": "docId",
          "type": "uint256"
        }
      ],
      "name": "upvoteDocument",
      "outputs": [],
      "stateMutability": "nonpayable",
      "type": "function"
    },
    {
      "inputs": [
        {
          "internalType": "uint256",
          "name": "docId",
          "type": "uint256"
        }
      ],
      "name": "downvoteDocument",
      "outputs": [],
      "stateMutability": "nonpayable",
      "type": "function"
    },
    {
      "inputs": [
        {
          "internalType": "uint256",
          "name": "docId",
          "type": "uint256"
        }
      ],
      "name": "removeVoteFromDocument",
      "outputs": [],
      "stateMutability": "nonpayable",
      "type": "function"
    },
    {
      "inputs": [
        {
          "internalType": "uint256",
          "name": "docId",
          "type": "uint256"
        }
      ],
      "name": "isDocumentUpvoted",
      "outputs": [
        {
          "internalType": "bool",
          "name": "",
          "type": "bool"
        }
      ],
      "stateMutability": "view",
      "type": "function",
      "constant": true
    },
    {
      "inputs": [
        {
          "internalType": "uint256",
          "name": "docId",
          "type": "uint256"
        }
      ],
      "name": "isDocumentDownvoted",
      "outputs": [
        {
          "internalType": "bool",
          "name": "",
          "type": "bool"
        }
      ],
      "stateMutability": "view",
      "type": "function",
      "constant": true
    },
    {
      "inputs": [
        {
          "internalType": "uint256",
          "name": "docId",
          "type": "uint256"
        }
      ],
      "name": "favouriteDocument",
      "outputs": [],
      "stateMutability": "nonpayable",
      "type": "function"
    },
    {
      "inputs": [
        {
          "internalType": "uint256",
          "name": "docId",
          "type": "uint256"
        }
      ],
      "name": "unfavouriteDocument",
      "outputs": [],
      "stateMutability": "nonpayable",
      "type": "function"
    },
    {
      "inputs": [
        {
          "internalType": "uint256",
          "name": "docId",
          "type": "uint256"
        }
      ],
      "name": "isDocumentFavourited",
      "outputs": [
        {
          "internalType": "bool",
          "name": "",
          "type": "bool"
        }
      ],
      "stateMutability": "view",
      "type": "function",
      "constant": true
    },
    {
      "inputs": [
        {
          "internalType": "uint256",
          "name": "docId",
          "type": "uint256"
        },
        {
          "internalType": "uint256",
          "name": "date",
          "type": "uint256"
        },
        {
          "internalType": "string",
          "name": "commentMsg",
          "type": "string"
        }
      ],
      "name": "sendComment",
      "outputs": [],
      "stateMutability": "nonpayable",
      "type": "function"
    },
    {
      "inputs": [
        {
          "internalType": "uint256",
          "name": "docId",
          "type": "uint256"
        },
        {
          "internalType": "uint256",
          "name": "commentId",
          "type": "uint256"
        }
      ],
      "name": "deleteComment",
      "outputs": [],
      "stateMutability": "nonpayable",
      "type": "function"
    },
    {
      "inputs": [
        {
          "internalType": "uint256",
          "name": "commentId",
          "type": "uint256"
        }
      ],
      "name": "likeComment",
      "outputs": [],
      "stateMutability": "nonpayable",
      "type": "function"
    },
    {
      "inputs": [
        {
          "internalType": "uint256",
          "name": "commentId",
          "type": "uint256"
        }
      ],
      "name": "removeLikeFromComment",
      "outputs": [],
      "stateMutability": "nonpayable",
      "type": "function"
    },
    {
      "inputs": [
        {
          "internalType": "uint256",
          "name": "commentId",
          "type": "uint256"
        }
      ],
      "name": "isCommentLiked",
      "outputs": [
        {
          "internalType": "bool",
          "name": "",
          "type": "bool"
        }
      ],
      "stateMutability": "view",
      "type": "function",
      "constant": true
    }
  ],
  "bytecode": "0x608060405234801561001057600080fd5b5061560980620000216000396000f3fe608060405234801561001057600080fd5b506004361061025e5760003560e01c80638928a0c111610146578063c2ed2b05116100c3578063d97fcde311610087578063d97fcde314610869578063e0de22dd14610885578063e77ce826146108b5578063f1271ff1146108e5578063fed5729614610901578063ffc1210a146109315761025e565b8063c2ed2b0514610785578063ccdeceed146107bd578063ce1168ee146107ed578063d2a6a3ef1461081d578063d4dac0ac146108395761025e565b8063a47c961a1161010a578063a47c961a146106cf578063b6a082f0146106eb578063b764ad9214610707578063b951875214610737578063b9f79451146107555761025e565b80638928a0c1146105ef5780638abd1b001461060b5780638ebb4c151461063b5780639c89a0e21461066f578063a29c12711461069f5761025e565b806347dd53a0116101df5780635fd4b08a116101a35780635fd4b08a146104cf578063619cd536146104ff578063695407521461052f5780636c43dbb41461055f5780637adc05d91461058f5780637c27ac9c146105bf5761025e565b806347dd53a0146103f357806351fc3243146104235780635353a2d814610453578063548cb5561461046f57806358e7036a1461049f5761025e565b806319b0390e1161022657806319b0390e1461033f57806331a4bcb51461035b5780634009519e14610377578063404f80e6146103a75780634601dbc4146103c35761025e565b8063012cc1e214610263578063019848921461027f5780630b15c9dc146102af5780630d4bfb4f146102df578063152a1aa41461030f575b600080fd5b61027d6004803603810190610278919061456d565b61094d565b005b610299600480360381019061029491906145f8565b610b20565b6040516102a691906146be565b60405180910390f35b6102c960048036038101906102c491906146e0565b610bc0565b6040516102d6919061473b565b60405180910390f35b6102f960048036038101906102f4919061456d565b610c27565b6040516103069190614765565b60405180910390f35b610329600480360381019061032491906146e0565b610c47565b6040516103369190614765565b60405180910390f35b610359600480360381019061035491906148b5565b610c78565b005b61037560048036038101906103709190614924565b610f41565b005b610391600480360381019061038c9190614924565b61123f565b60405161039e9190614765565b60405180910390f35b6103c160048036038101906103bc919061456d565b6112ef565b005b6103dd60048036038101906103d8919061456d565b611358565b6040516103ea919061473b565b60405180910390f35b61040d6004803603810190610408919061456d565b611435565b60405161041a919061473b565b60405180910390f35b61043d600480360381019061043891906145f8565b611512565b60405161044a9190614765565b60405180910390f35b61046d60048036038101906104689190614964565b61155e565b005b6104896004803603810190610484919061456d565b611607565b604051610496919061473b565b60405180910390f35b6104b960048036038101906104b49190614924565b6116e4565b6040516104c69190614765565b60405180910390f35b6104e960048036038101906104e491906145f8565b611715565b6040516104f691906146be565b60405180910390f35b610519600480360381019061051491906146e0565b6117e6565b6040516105269190614765565b60405180910390f35b610549600480360381019061054491906146e0565b61184c565b6040516105569190614765565b60405180910390f35b6105796004803603810190610574919061456d565b6118b2565b6040516105869190614a8b565b60405180910390f35b6105a960048036038101906105a491906146e0565b611a4b565b6040516105b69190614765565b60405180910390f35b6105d960048036038101906105d491906146e0565b611a7c565b6040516105e69190614765565b60405180910390f35b6106096004803603810190610604919061456d565b611aad565b005b610625600480360381019061062091906146e0565b611d7f565b6040516106329190614765565b60405180910390f35b6106556004803603810190610650919061456d565b611db0565b604051610666959493929190614abc565b60405180910390f35b610689600480360381019061068491906145f8565b611e9e565b6040516106969190614765565b60405180910390f35b6106b960048036038101906106b491906146e0565b611ee7565b6040516106c69190614765565b60405180910390f35b6106e960048036038101906106e49190614b16565b611f4d565b005b6107056004803603810190610700919061456d565b61221b565b005b610721600480360381019061071c91906146e0565b612806565b60405161072e9190614765565b60405180910390f35b61073f612837565b60405161074c9190614765565b60405180910390f35b61076f600480360381019061076a91906145f8565b612843565b60405161077c9190614765565b60405180910390f35b61079f600480360381019061079a919061456d565b61285b565b6040516107b499989796959493929190614c06565b60405180910390f35b6107d760048036038101906107d291906146e0565b612a71565b6040516107e49190614765565b60405180910390f35b610807600480360381019061080291906145f8565b612aa2565b6040516108149190614765565b60405180910390f35b6108376004803603810190610832919061456d565b612aee565b005b610853600480360381019061084e91906145f8565b613357565b6040516108609190614765565b60405180910390f35b610883600480360381019061087e919061456d565b6133a3565b005b61089f600480360381019061089a919061456d565b6138e4565b6040516108ac9190614d8a565b60405180910390f35b6108cf60048036038101906108ca91906146e0565b613b6b565b6040516108dc919061473b565b60405180910390f35b6108ff60048036038101906108fa919061456d565b613c49565b005b61091b6004803603810190610916919061456d565b61406b565b604051610928919061473b565b60405180910390f35b61094b6004803603810190610946919061456d565b614148565b005b610956816118b2565b6020015173ffffffffffffffffffffffffffffffffffffffff163373ffffffffffffffffffffffffffffffffffffffff1614156109c8576040517f08c379a00000000000000000000000000000000000000000000000000000000081526004016109bf90614df8565b60405180910390fd5b600a60003373ffffffffffffffffffffffffffffffffffffffff1673ffffffffffffffffffffffffffffffffffffffff168152602001908152602001600020819080600181540180825580915050600190039060005260206000200160009091909190915055600180600183610a3e9190614e47565b81548110610a4f57610a4e614e7b565b5b90600052602060002090600502016004016000828254610a6f9190614eaa565b9250508190555060016003600060018085610a8a9190614e47565b81548110610a9b57610a9a614e7b565b5b906000526020600020906005020160010160009054906101000a900473ffffffffffffffffffffffffffffffffffffffff1673ffffffffffffffffffffffffffffffffffffffff1673ffffffffffffffffffffffffffffffffffffffff1681526020019081526020016000206000828254610b169190614eaa565b9250508190555050565b60026020528060005260406000206000915090508054610b3f90614f2f565b80601f0160208091040260200160405190810160405280929190818152602001828054610b6b90614f2f565b8015610bb85780601f10610b8d57610100808354040283529160200191610bb8565b820191906000526020600020905b815481529060010190602001808311610b9b57829003601f168201915b505050505081565b6000610bcb826138e4565b6020015173ffffffffffffffffffffffffffffffffffffffff168373ffffffffffffffffffffffffffffffffffffffff161480610c0e5750610c0d8383613b6b565b5b15610c1c5760019050610c21565b600090505b92915050565b600060096000838152602001908152602001600020805490509050919050565b60086020528160005260406000208181548110610c6357600080fd5b90600052602060002001600091509150505481565b60008151118015610c8b57506101f48151105b610cca576040517f08c379a0000000000000000000000000000000000000000000000000000000008152600401610cc190614fd3565b60405180910390fd5b60006001805490501415610dda5760016040518060a0016040528060018080549050610cf69190614eaa565b81526020013373ffffffffffffffffffffffffffffffffffffffff168152602001848152602001838152602001600081525090806001815401808255809150506001900390600052602060002090600502016000909190919091506000820151816000015560208201518160010160006101000a81548173ffffffffffffffffffffffffffffffffffffffff021916908373ffffffffffffffffffffffffffffffffffffffff160217905550604082015181600201556060820151816003019080519060200190610dc892919061430c565b50608082015181600401555050610efd565b60016040518060a0016040528060018060018054905081548110610e0157610e00614e7b565b5b906000526020600020906005020160000154610e1d9190614eaa565b81526020013373ffffffffffffffffffffffffffffffffffffffff168152602001848152602001838152602001600081525090806001815401808255809150506001900390600052602060002090600502016000909190919091506000820151816000015560208201518160010160006101000a81548173ffffffffffffffffffffffffffffffffffffffff021916908373ffffffffffffffffffffffffffffffffffffffff160217905550604082015181600201556060820151816003019080519060200190610eef92919061430c565b506080820151816004015550505b600960008481526020019081526020016000206001805490509080600181540180825580915050600190039060005260206000200160009091909190915055505050565b6000805b600180549050811015610f96578260018281548110610f6757610f66614e7b565b5b9060005260206000209060050201600001541415610f83578091505b8080610f8e90614ff3565b915050610f45565b506001808080549050610fa99190614e47565b81548110610fba57610fb9614e7b565b5b906000526020600020906005020160018281548110610fdc57610fdb614e7b565b5b9060005260206000209060050201600082015481600001556001820160009054906101000a900473ffffffffffffffffffffffffffffffffffffffff168160010160006101000a81548173ffffffffffffffffffffffffffffffffffffffff021916908373ffffffffffffffffffffffffffffffffffffffff16021790555060028201548160020155600382018160030190805461107990614f2f565b611084929190614392565b506004820154816004015590505060018054806110a4576110a361503c565b5b60019003818190600052602060002090600502016000808201600090556001820160006101000a81549073ffffffffffffffffffffffffffffffffffffffff02191690556002820160009055600382016000611100919061441f565b60048201600090555050905560005b600960008581526020019081526020016000208054905081101561117b578260096000868152602001908152602001600020828154811061115357611152614e7b565b5b90600052602060002001541415611168578091505b808061117390614ff3565b91505061110f565b5060096000848152602001908152602001600020600160096000868152602001908152602001600020805490506111b29190614e47565b815481106111c3576111c2614e7b565b5b90600052602060002001546009600085815260200190815260200160002082815481106111f3576111f2614e7b565b5b9060005260206000200181905550600960008481526020019081526020016000208054806112245761122361503c565b5b60019003818190600052602060002001600090559055505050565b6000806000905060005b60096000868152602001908152602001600020805490508110156112b5578360096000878152602001908152602001600020828154811061128d5761128c614e7b565b5b906000526020600020015414156112a2578091505b80806112ad90614ff3565b915050611249565b506009600085815260200190815260200160002081815481106112db576112da614e7b565b5b906000526020600020015491505092915050565b600560003373ffffffffffffffffffffffffffffffffffffffff1673ffffffffffffffffffffffffffffffffffffffff16815260200190815260200160002081908060018154018082558091505060019003906000526020600020016000909190919091505550565b600080600090505b600660003373ffffffffffffffffffffffffffffffffffffffff1673ffffffffffffffffffffffffffffffffffffffff1681526020019081526020016000208054905081101561142a5782600660003373ffffffffffffffffffffffffffffffffffffffff1673ffffffffffffffffffffffffffffffffffffffff16815260200190815260200160002082815481106113fc576113fb614e7b565b5b90600052602060002001541415611417576001915050611430565b808061142290614ff3565b915050611360565b50600090505b919050565b600080600090505b600860003373ffffffffffffffffffffffffffffffffffffffff1673ffffffffffffffffffffffffffffffffffffffff168152602001908152602001600020805490508110156115075782600860003373ffffffffffffffffffffffffffffffffffffffff1673ffffffffffffffffffffffffffffffffffffffff16815260200190815260200160002082815481106114d9576114d8614e7b565b5b906000526020600020015414156114f457600191505061150d565b80806114ff90614ff3565b91505061143d565b50600090505b919050565b6000600860008373ffffffffffffffffffffffffffffffffffffffff1673ffffffffffffffffffffffffffffffffffffffff168152602001908152602001600020805490509050919050565b6000815111801561157157506023815111155b6115b0576040517f08c379a00000000000000000000000000000000000000000000000000000000081526004016115a7906150dd565b60405180910390fd5b80600260003373ffffffffffffffffffffffffffffffffffffffff1673ffffffffffffffffffffffffffffffffffffffff168152602001908152602001600020908051906020019061160392919061430c565b5050565b600080600090505b600a60003373ffffffffffffffffffffffffffffffffffffffff1673ffffffffffffffffffffffffffffffffffffffff168152602001908152602001600020805490508110156116d95782600a60003373ffffffffffffffffffffffffffffffffffffffff1673ffffffffffffffffffffffffffffffffffffffff16815260200190815260200160002082815481106116ab576116aa614e7b565b5b906000526020600020015414156116c65760019150506116df565b80806116d190614ff3565b91505061160f565b50600090505b919050565b6009602052816000526040600020818154811061170057600080fd5b90600052602060002001600091509150505481565b6060600260008373ffffffffffffffffffffffffffffffffffffffff1673ffffffffffffffffffffffffffffffffffffffff168152602001908152602001600020805461176190614f2f565b80601f016020809104026020016040519081016040528092919081815260200182805461178d90614f2f565b80156117da5780601f106117af576101008083540402835291602001916117da565b820191906000526020600020905b8154815290600101906020018083116117bd57829003601f168201915b50505050509050919050565b6000600560008473ffffffffffffffffffffffffffffffffffffffff1673ffffffffffffffffffffffffffffffffffffffff168152602001908152602001600020828154811061183957611838614e7b565b5b9060005260206000200154905092915050565b6000600860008473ffffffffffffffffffffffffffffffffffffffff1673ffffffffffffffffffffffffffffffffffffffff168152602001908152602001600020828154811061189f5761189e614e7b565b5b9060005260206000200154905092915050565b6118ba61445f565b6000805b60018054905081101561190f5783600182815481106118e0576118df614e7b565b5b90600052602060002090600502016000015414156118fc578091505b808061190790614ff3565b9150506118be565b506001818154811061192457611923614e7b565b5b90600052602060002090600502016040518060a0016040529081600082015481526020016001820160009054906101000a900473ffffffffffffffffffffffffffffffffffffffff1673ffffffffffffffffffffffffffffffffffffffff1673ffffffffffffffffffffffffffffffffffffffff168152602001600282015481526020016003820180546119b790614f2f565b80601f01602080910402602001604051908101604052809291908181526020018280546119e390614f2f565b8015611a305780601f10611a0557610100808354040283529160200191611a30565b820191906000526020600020905b815481529060010190602001808311611a1357829003601f168201915b50505050508152602001600482015481525050915050919050565b600a6020528160005260406000208181548110611a6757600080fd5b90600052602060002001600091509150505481565b60046020528160005260406000208181548110611a9857600080fd5b90600052602060002001600091509150505481565b60008060005b600860003373ffffffffffffffffffffffffffffffffffffffff1673ffffffffffffffffffffffffffffffffffffffff16815260200190815260200160002080549050811015611b7b5783600860003373ffffffffffffffffffffffffffffffffffffffff1673ffffffffffffffffffffffffffffffffffffffff1681526020019081526020016000208281548110611b4f57611b4e614e7b565b5b90600052602060002001541415611b6857809250600191505b8080611b7390614ff3565b915050611ab3565b506001151581151514611bc3576040517f08c379a0000000000000000000000000000000000000000000000000000000008152600401611bba9061516f565b60405180910390fd5b600860003373ffffffffffffffffffffffffffffffffffffffff1673ffffffffffffffffffffffffffffffffffffffff1681526020019081526020016000206001600860003373ffffffffffffffffffffffffffffffffffffffff1673ffffffffffffffffffffffffffffffffffffffff16815260200190815260200160002080549050611c519190614e47565b81548110611c6257611c61614e7b565b5b9060005260206000200154600860003373ffffffffffffffffffffffffffffffffffffffff1673ffffffffffffffffffffffffffffffffffffffff1681526020019081526020016000208381548110611cbe57611cbd614e7b565b5b9060005260206000200181905550600860003373ffffffffffffffffffffffffffffffffffffffff1673ffffffffffffffffffffffffffffffffffffffff168152602001908152602001600020805480611d1b57611d1a61503c565b5b6001900381819060005260206000200160009055905560016000600185611d429190614e47565b81548110611d5357611d52614e7b565b5b90600052602060002090600902016008016000828254611d739190614e47565b92505081905550505050565b60076020528160005260406000208181548110611d9b57600080fd5b90600052602060002001600091509150505481565b60018181548110611dc057600080fd5b90600052602060002090600502016000915090508060000154908060010160009054906101000a900473ffffffffffffffffffffffffffffffffffffffff1690806002015490806003018054611e1590614f2f565b80601f0160208091040260200160405190810160405280929190818152602001828054611e4190614f2f565b8015611e8e5780601f10611e6357610100808354040283529160200191611e8e565b820191906000526020600020905b815481529060010190602001808311611e7157829003601f168201915b5050505050908060040154905085565b6000600360008373ffffffffffffffffffffffffffffffffffffffff1673ffffffffffffffffffffffffffffffffffffffff168152602001908152602001600020549050919050565b6000600460008473ffffffffffffffffffffffffffffffffffffffff1673ffffffffffffffffffffffffffffffffffffffff1681526020019081526020016000208281548110611f3a57611f39614e7b565b5b9060005260206000200154905092915050565b60008551118015611f6057506019855111155b611f9f576040517f08c379a0000000000000000000000000000000000000000000000000000000008152600401611f9690615201565b60405180910390fd5b60008351118015611fb357506103e8835111155b611ff2576040517f08c379a0000000000000000000000000000000000000000000000000000000008152600401611fe990615293565b60405180910390fd5b6000821015612036576040517f08c379a000000000000000000000000000000000000000000000000000000000815260040161202d906152ff565b60405180910390fd5b600060405180610120016040528060016000805490506120569190614eaa565b81526020013373ffffffffffffffffffffffffffffffffffffffff16815260200187815260200186815260200185815260200184815260200183815260200160008152602001600081525090806001815401808255809150506001900390600052602060002090600902016000909190919091506000820151816000015560208201518160010160006101000a81548173ffffffffffffffffffffffffffffffffffffffff021916908373ffffffffffffffffffffffffffffffffffffffff160217905550604082015181600201908051906020019061213792919061430c565b5060608201518160030155608082015181600401908051906020019061215e92919061430c565b5060a0820151816005015560c082015181600601908051906020019061218592919061430c565b5060e0820151816007015561010082015181600801555050600460003373ffffffffffffffffffffffffffffffffffffffff1673ffffffffffffffffffffffffffffffffffffffff16815260200190815260200160002060016000805490506121ee9190614eaa565b90806001815401808255809150506001900390600052602060002001600090919091909150555050505050565b612224816138e4565b6020015173ffffffffffffffffffffffffffffffffffffffff163373ffffffffffffffffffffffffffffffffffffffff161415612296576040517f08c379a000000000000000000000000000000000000000000000000000000000815260040161228d90615391565b60405180910390fd5b600115156122a382611358565b151514156124e4576000805b600660003373ffffffffffffffffffffffffffffffffffffffff1673ffffffffffffffffffffffffffffffffffffffff168152602001908152602001600020805490508110156123735782600660003373ffffffffffffffffffffffffffffffffffffffff1673ffffffffffffffffffffffffffffffffffffffff168152602001908152602001600020828154811061234b5761234a614e7b565b5b90600052602060002001541415612360578091505b808061236b90614ff3565b9150506122af565b50600660003373ffffffffffffffffffffffffffffffffffffffff1673ffffffffffffffffffffffffffffffffffffffff1681526020019081526020016000206001600660003373ffffffffffffffffffffffffffffffffffffffff1673ffffffffffffffffffffffffffffffffffffffff168152602001908152602001600020805490506124029190614e47565b8154811061241357612412614e7b565b5b9060005260206000200154600660003373ffffffffffffffffffffffffffffffffffffffff1673ffffffffffffffffffffffffffffffffffffffff168152602001908152602001600020828154811061246f5761246e614e7b565b5b9060005260206000200181905550600660003373ffffffffffffffffffffffffffffffffffffffff1673ffffffffffffffffffffffffffffffffffffffff1681526020019081526020016000208054806124cc576124cb61503c565b5b60019003818190600052602060002001600090559055505b600760003373ffffffffffffffffffffffffffffffffffffffff1673ffffffffffffffffffffffffffffffffffffffff16815260200190815260200160002081908060018154018082558091505060019003906000526020600020016000909190919091505560006001600060018461255d9190614e47565b8154811061256e5761256d614e7b565b5b9060005260206000209060090201600701600082825461258e9190614e47565b925050819055116125cc576000806001836125a99190614e47565b815481106125ba576125b9614e7b565b5b90600052602060002090505050612616565b600160006001836125dd9190614e47565b815481106125ee576125ed614e7b565b5b9060005260206000209060090201600701600082825461260e9190614e47565b925050819055505b60006005600360008060018661262c9190614e47565b8154811061263d5761263c614e7b565b5b906000526020600020906009020160010160009054906101000a900473ffffffffffffffffffffffffffffffffffffffff1673ffffffffffffffffffffffffffffffffffffffff1673ffffffffffffffffffffffffffffffffffffffff16815260200190815260200160002060008282546126b89190614e47565b9250508190551161275b57600060036000806001856126d79190614e47565b815481106126e8576126e7614e7b565b5b906000526020600020906009020160010160009054906101000a900473ffffffffffffffffffffffffffffffffffffffff1673ffffffffffffffffffffffffffffffffffffffff1673ffffffffffffffffffffffffffffffffffffffff1681526020019081526020016000205050612803565b6005600360008060018561276f9190614e47565b815481106127805761277f614e7b565b5b906000526020600020906009020160010160009054906101000a900473ffffffffffffffffffffffffffffffffffffffff1673ffffffffffffffffffffffffffffffffffffffff1673ffffffffffffffffffffffffffffffffffffffff16815260200190815260200160002060008282546127fb9190614e47565b925050819055505b50565b6005602052816000526040600020818154811061282257600080fd5b90600052602060002001600091509150505481565b60008080549050905090565b60036020528060005260406000206000915090505481565b6000818154811061286b57600080fd5b90600052602060002090600902016000915090508060000154908060010160009054906101000a900473ffffffffffffffffffffffffffffffffffffffff16908060020180546128ba90614f2f565b80601f01602080910402602001604051908101604052809291908181526020018280546128e690614f2f565b80156129335780601f1061290857610100808354040283529160200191612933565b820191906000526020600020905b81548152906001019060200180831161291657829003601f168201915b50505050509080600301549080600401805461294e90614f2f565b80601f016020809104026020016040519081016040528092919081815260200182805461297a90614f2f565b80156129c75780601f1061299c576101008083540402835291602001916129c7565b820191906000526020600020905b8154815290600101906020018083116129aa57829003601f168201915b5050505050908060050154908060060180546129e290614f2f565b80601f0160208091040260200160405190810160405280929190818152602001828054612a0e90614f2f565b8015612a5b5780601f10612a3057610100808354040283529160200191612a5b565b820191906000526020600020905b815481529060010190602001808311612a3e57829003601f168201915b5050505050908060070154908060080154905089565b60066020528160005260406000208181548110612a8d57600080fd5b90600052602060002001600091509150505481565b6000600560008373ffffffffffffffffffffffffffffffffffffffff1673ffffffffffffffffffffffffffffffffffffffff168152602001908152602001600020805490509050919050565b60011515612afb82611358565b15151480612b15575060011515612b118261406b565b1515145b612b54576040517f08c379a0000000000000000000000000000000000000000000000000000000008152600401612b4b90615423565b60405180910390fd5b600060011515612b6383611358565b1515141561305f5760005b600660003373ffffffffffffffffffffffffffffffffffffffff1673ffffffffffffffffffffffffffffffffffffffff16815260200190815260200160002080549050811015612c325782600660003373ffffffffffffffffffffffffffffffffffffffff1673ffffffffffffffffffffffffffffffffffffffff1681526020019081526020016000208281548110612c0a57612c09614e7b565b5b90600052602060002001541415612c1f578091505b8080612c2a90614ff3565b915050612b6e565b50600660003373ffffffffffffffffffffffffffffffffffffffff1673ffffffffffffffffffffffffffffffffffffffff1681526020019081526020016000206001600660003373ffffffffffffffffffffffffffffffffffffffff1673ffffffffffffffffffffffffffffffffffffffff16815260200190815260200160002080549050612cc19190614e47565b81548110612cd257612cd1614e7b565b5b9060005260206000200154600660003373ffffffffffffffffffffffffffffffffffffffff1673ffffffffffffffffffffffffffffffffffffffff1681526020019081526020016000208281548110612d2e57612d2d614e7b565b5b9060005260206000200181905550600660003373ffffffffffffffffffffffffffffffffffffffff1673ffffffffffffffffffffffffffffffffffffffff168152602001908152602001600020805480612d8b57612d8a61503c565b5b60019003818190600052602060002001600090559055600060016000600185612db49190614e47565b81548110612dc557612dc4614e7b565b5b90600052602060002090600902016007016000828254612de59190614e47565b92505081905511612e2357600080600184612e009190614e47565b81548110612e1157612e10614e7b565b5b90600052602060002090505050612e6d565b60016000600184612e349190614e47565b81548110612e4557612e44614e7b565b5b90600052602060002090600902016007016000828254612e659190614e47565b925050819055505b600060056003600080600187612e839190614e47565b81548110612e9457612e93614e7b565b5b906000526020600020906009020160010160009054906101000a900473ffffffffffffffffffffffffffffffffffffffff1673ffffffffffffffffffffffffffffffffffffffff1673ffffffffffffffffffffffffffffffffffffffff1681526020019081526020016000206000828254612f0f9190614e47565b92505081905511612fb25760006003600080600186612f2e9190614e47565b81548110612f3f57612f3e614e7b565b5b906000526020600020906009020160010160009054906101000a900473ffffffffffffffffffffffffffffffffffffffff1673ffffffffffffffffffffffffffffffffffffffff1673ffffffffffffffffffffffffffffffffffffffff168152602001908152602001600020505061305a565b60056003600080600186612fc69190614e47565b81548110612fd757612fd6614e7b565b5b906000526020600020906009020160010160009054906101000a900473ffffffffffffffffffffffffffffffffffffffff1673ffffffffffffffffffffffffffffffffffffffff1673ffffffffffffffffffffffffffffffffffffffff16815260200190815260200160002060008282546130529190614e47565b925050819055505b613353565b6001151561306c8361406b565b151514156133525760005b600760003373ffffffffffffffffffffffffffffffffffffffff1673ffffffffffffffffffffffffffffffffffffffff1681526020019081526020016000208054905081101561313b5782600760003373ffffffffffffffffffffffffffffffffffffffff1673ffffffffffffffffffffffffffffffffffffffff168152602001908152602001600020828154811061311357613112614e7b565b5b90600052602060002001541415613128578091505b808061313390614ff3565b915050613077565b50600760003373ffffffffffffffffffffffffffffffffffffffff1673ffffffffffffffffffffffffffffffffffffffff1681526020019081526020016000206001600760003373ffffffffffffffffffffffffffffffffffffffff1673ffffffffffffffffffffffffffffffffffffffff168152602001908152602001600020805490506131ca9190614e47565b815481106131db576131da614e7b565b5b9060005260206000200154600760003373ffffffffffffffffffffffffffffffffffffffff1673ffffffffffffffffffffffffffffffffffffffff168152602001908152602001600020828154811061323757613236614e7b565b5b9060005260206000200181905550600760003373ffffffffffffffffffffffffffffffffffffffff1673ffffffffffffffffffffffffffffffffffffffff1681526020019081526020016000208054806132945761329361503c565b5b60019003818190600052602060002001600090559055600560036000806001866132be9190614e47565b815481106132cf576132ce614e7b565b5b906000526020600020906009020160010160009054906101000a900473ffffffffffffffffffffffffffffffffffffffff1673ffffffffffffffffffffffffffffffffffffffff1673ffffffffffffffffffffffffffffffffffffffff168152602001908152602001600020600082825461334a9190614eaa565b925050819055505b5b5050565b6000600460008373ffffffffffffffffffffffffffffffffffffffff1673ffffffffffffffffffffffffffffffffffffffff168152602001908152602001600020805490509050919050565b600115156133b082611607565b1515146133f2576040517f08c379a00000000000000000000000000000000000000000000000000000000081526004016133e99061548f565b60405180910390fd5b6000805b600a60003373ffffffffffffffffffffffffffffffffffffffff1673ffffffffffffffffffffffffffffffffffffffff168152602001908152602001600020805490508110156134ba5782600a60003373ffffffffffffffffffffffffffffffffffffffff1673ffffffffffffffffffffffffffffffffffffffff168152602001908152602001600020828154811061349257613491614e7b565b5b906000526020600020015414156134a7578091505b80806134b290614ff3565b9150506133f6565b50600a60003373ffffffffffffffffffffffffffffffffffffffff1673ffffffffffffffffffffffffffffffffffffffff1681526020019081526020016000206001600a60003373ffffffffffffffffffffffffffffffffffffffff1673ffffffffffffffffffffffffffffffffffffffff168152602001908152602001600020805490506135499190614e47565b8154811061355a57613559614e7b565b5b9060005260206000200154600a60003373ffffffffffffffffffffffffffffffffffffffff1673ffffffffffffffffffffffffffffffffffffffff16815260200190815260200160002082815481106135b6576135b5614e7b565b5b9060005260206000200181905550600a60003373ffffffffffffffffffffffffffffffffffffffff1673ffffffffffffffffffffffffffffffffffffffff1681526020019081526020016000208054806136135761361261503c565b5b60019003818190600052602060002001600090559055600060018060018561363b9190614e47565b8154811061364c5761364b614e7b565b5b9060005260206000209060050201600401600082825461366c9190614e47565b925050819055116136aa576000600180846136879190614e47565b8154811061369857613697614e7b565b5b906000526020600020905050506136f3565b6001806001846136ba9190614e47565b815481106136cb576136ca614e7b565b5b906000526020600020906005020160040160008282546136eb9190614e47565b925050819055505b6000600160036000600180876137099190614e47565b8154811061371a57613719614e7b565b5b906000526020600020906005020160010160009054906101000a900473ffffffffffffffffffffffffffffffffffffffff1673ffffffffffffffffffffffffffffffffffffffff1673ffffffffffffffffffffffffffffffffffffffff16815260200190815260200160002060008282546137959190614e47565b9250508190551161383857600060036000600180866137b49190614e47565b815481106137c5576137c4614e7b565b5b906000526020600020906005020160010160009054906101000a900473ffffffffffffffffffffffffffffffffffffffff1673ffffffffffffffffffffffffffffffffffffffff1673ffffffffffffffffffffffffffffffffffffffff16815260200190815260200160002050506138e0565b6001600360006001808661384c9190614e47565b8154811061385d5761385c614e7b565b5b906000526020600020906005020160010160009054906101000a900473ffffffffffffffffffffffffffffffffffffffff1673ffffffffffffffffffffffffffffffffffffffff1673ffffffffffffffffffffffffffffffffffffffff16815260200190815260200160002060008282546138d89190614e47565b925050819055505b5050565b6138ec6144a4565b60006001836138fb9190614e47565b8154811061390c5761390b614e7b565b5b906000526020600020906009020160405180610120016040529081600082015481526020016001820160009054906101000a900473ffffffffffffffffffffffffffffffffffffffff1673ffffffffffffffffffffffffffffffffffffffff1673ffffffffffffffffffffffffffffffffffffffff16815260200160028201805461399690614f2f565b80601f01602080910402602001604051908101604052809291908181526020018280546139c290614f2f565b8015613a0f5780601f106139e457610100808354040283529160200191613a0f565b820191906000526020600020905b8154815290600101906020018083116139f257829003601f168201915b5050505050815260200160038201548152602001600482018054613a3290614f2f565b80601f0160208091040260200160405190810160405280929190818152602001828054613a5e90614f2f565b8015613aab5780601f10613a8057610100808354040283529160200191613aab565b820191906000526020600020905b815481529060010190602001808311613a8e57829003601f168201915b5050505050815260200160058201548152602001600682018054613ace90614f2f565b80601f0160208091040260200160405190810160405280929190818152602001828054613afa90614f2f565b8015613b475780601f10613b1c57610100808354040283529160200191613b47565b820191906000526020600020905b815481529060010190602001808311613b2a57829003601f168201915b50505050508152602001600782015481526020016008820154815250509050919050565b600080600090505b600560008573ffffffffffffffffffffffffffffffffffffffff1673ffffffffffffffffffffffffffffffffffffffff16815260200190815260200160002080549050811015613c3d5782600560008673ffffffffffffffffffffffffffffffffffffffff1673ffffffffffffffffffffffffffffffffffffffff1681526020019081526020016000208281548110613c0f57613c0e614e7b565b5b90600052602060002001541415613c2a576001915050613c43565b8080613c3590614ff3565b915050613b73565b50600090505b92915050565b613c52816138e4565b6020015173ffffffffffffffffffffffffffffffffffffffff163373ffffffffffffffffffffffffffffffffffffffff161415613cc4576040517f08c379a0000000000000000000000000000000000000000000000000000000008152600401613cbb90615521565b60405180910390fd5b60011515613cd18261406b565b15151415613f12576000805b600760003373ffffffffffffffffffffffffffffffffffffffff1673ffffffffffffffffffffffffffffffffffffffff16815260200190815260200160002080549050811015613da15782600760003373ffffffffffffffffffffffffffffffffffffffff1673ffffffffffffffffffffffffffffffffffffffff1681526020019081526020016000208281548110613d7957613d78614e7b565b5b90600052602060002001541415613d8e578091505b8080613d9990614ff3565b915050613cdd565b50600760003373ffffffffffffffffffffffffffffffffffffffff1673ffffffffffffffffffffffffffffffffffffffff1681526020019081526020016000206001600760003373ffffffffffffffffffffffffffffffffffffffff1673ffffffffffffffffffffffffffffffffffffffff16815260200190815260200160002080549050613e309190614e47565b81548110613e4157613e40614e7b565b5b9060005260206000200154600760003373ffffffffffffffffffffffffffffffffffffffff1673ffffffffffffffffffffffffffffffffffffffff1681526020019081526020016000208281548110613e9d57613e9c614e7b565b5b9060005260206000200181905550600760003373ffffffffffffffffffffffffffffffffffffffff1673ffffffffffffffffffffffffffffffffffffffff168152602001908152602001600020805480613efa57613ef961503c565b5b60019003818190600052602060002001600090559055505b600660003373ffffffffffffffffffffffffffffffffffffffff1673ffffffffffffffffffffffffffffffffffffffff16815260200190815260200160002081908060018154018082558091505060019003906000526020600020016000909190919091505560016000600183613f899190614e47565b81548110613f9a57613f99614e7b565b5b90600052602060002090600902016007016000828254613fba9190614eaa565b92505081905550600a6003600080600185613fd59190614e47565b81548110613fe657613fe5614e7b565b5b906000526020600020906009020160010160009054906101000a900473ffffffffffffffffffffffffffffffffffffffff1673ffffffffffffffffffffffffffffffffffffffff1673ffffffffffffffffffffffffffffffffffffffff16815260200190815260200160002060008282546140619190614eaa565b9250508190555050565b600080600090505b600760003373ffffffffffffffffffffffffffffffffffffffff1673ffffffffffffffffffffffffffffffffffffffff1681526020019081526020016000208054905081101561413d5782600760003373ffffffffffffffffffffffffffffffffffffffff1673ffffffffffffffffffffffffffffffffffffffff168152602001908152602001600020828154811061410f5761410e614e7b565b5b9060005260206000200154141561412a576001915050614143565b808061413590614ff3565b915050614073565b50600090505b919050565b6000805b600860003373ffffffffffffffffffffffffffffffffffffffff1673ffffffffffffffffffffffffffffffffffffffff168152602001908152602001600020805490508110156142115782600860003373ffffffffffffffffffffffffffffffffffffffff1673ffffffffffffffffffffffffffffffffffffffff16815260200190815260200160002082815481106141e8576141e7614e7b565b5b906000526020600020015414156141fe57600191505b808061420990614ff3565b91505061414c565b506000151581151514614259576040517f08c379a0000000000000000000000000000000000000000000000000000000008152600401614250906155b3565b60405180910390fd5b600860003373ffffffffffffffffffffffffffffffffffffffff1673ffffffffffffffffffffffffffffffffffffffff168152602001908152602001600020829080600181540180825580915050600190039060005260206000200160009091909190915055600160006001846142d09190614e47565b815481106142e1576142e0614e7b565b5b906000526020600020906009020160080160008282546143019190614eaa565b925050819055505050565b82805461431890614f2f565b90600052602060002090601f01602090048101928261433a5760008555614381565b82601f1061435357805160ff1916838001178555614381565b82800160010185558215614381579182015b82811115614380578251825591602001919060010190614365565b5b50905061438e9190614506565b5090565b82805461439e90614f2f565b90600052602060002090601f0160209004810192826143c0576000855561440e565b82601f106143d1578054855561440e565b8280016001018555821561440e57600052602060002091601f016020900482015b8281111561440d5782548255916001019190600101906143f2565b5b50905061441b9190614506565b5090565b50805461442b90614f2f565b6000825580601f1061443d575061445c565b601f01602090049060005260206000209081019061445b9190614506565b5b50565b6040518060a0016040528060008152602001600073ffffffffffffffffffffffffffffffffffffffff1681526020016000815260200160608152602001600081525090565b60405180610120016040528060008152602001600073ffffffffffffffffffffffffffffffffffffffff168152602001606081526020016000815260200160608152602001600081526020016060815260200160008152602001600081525090565b5b8082111561451f576000816000905550600101614507565b5090565b6000604051905090565b600080fd5b600080fd5b6000819050919050565b61454a81614537565b811461455557600080fd5b50565b60008135905061456781614541565b92915050565b6000602082840312156145835761458261452d565b5b600061459184828501614558565b91505092915050565b600073ffffffffffffffffffffffffffffffffffffffff82169050919050565b60006145c58261459a565b9050919050565b6145d5816145ba565b81146145e057600080fd5b50565b6000813590506145f2816145cc565b92915050565b60006020828403121561460e5761460d61452d565b5b600061461c848285016145e3565b91505092915050565b600081519050919050565b600082825260208201905092915050565b60005b8381101561465f578082015181840152602081019050614644565b8381111561466e576000848401525b50505050565b6000601f19601f8301169050919050565b600061469082614625565b61469a8185614630565b93506146aa818560208601614641565b6146b381614674565b840191505092915050565b600060208201905081810360008301526146d88184614685565b905092915050565b600080604083850312156146f7576146f661452d565b5b6000614705858286016145e3565b925050602061471685828601614558565b9150509250929050565b60008115159050919050565b61473581614720565b82525050565b6000602082019050614750600083018461472c565b92915050565b61475f81614537565b82525050565b600060208201905061477a6000830184614756565b92915050565b600080fd5b600080fd5b7f4e487b7100000000000000000000000000000000000000000000000000000000600052604160045260246000fd5b6147c282614674565b810181811067ffffffffffffffff821117156147e1576147e061478a565b5b80604052505050565b60006147f4614523565b905061480082826147b9565b919050565b600067ffffffffffffffff8211156148205761481f61478a565b5b61482982614674565b9050602081019050919050565b82818337600083830152505050565b600061485861485384614805565b6147ea565b90508281526020810184848401111561487457614873614785565b5b61487f848285614836565b509392505050565b600082601f83011261489c5761489b614780565b5b81356148ac848260208601614845565b91505092915050565b6000806000606084860312156148ce576148cd61452d565b5b60006148dc86828701614558565b93505060206148ed86828701614558565b925050604084013567ffffffffffffffff81111561490e5761490d614532565b5b61491a86828701614887565b9150509250925092565b6000806040838503121561493b5761493a61452d565b5b600061494985828601614558565b925050602061495a85828601614558565b9150509250929050565b60006020828403121561497a5761497961452d565b5b600082013567ffffffffffffffff81111561499857614997614532565b5b6149a484828501614887565b91505092915050565b6149b681614537565b82525050565b6149c5816145ba565b82525050565b600082825260208201905092915050565b60006149e782614625565b6149f181856149cb565b9350614a01818560208601614641565b614a0a81614674565b840191505092915050565b600060a083016000830151614a2d60008601826149ad565b506020830151614a4060208601826149bc565b506040830151614a5360408601826149ad565b5060608301518482036060860152614a6b82826149dc565b9150506080830151614a8060808601826149ad565b508091505092915050565b60006020820190508181036000830152614aa58184614a15565b905092915050565b614ab6816145ba565b82525050565b600060a082019050614ad16000830188614756565b614ade6020830187614aad565b614aeb6040830186614756565b8181036060830152614afd8185614685565b9050614b0c6080830184614756565b9695505050505050565b600080600080600060a08688031215614b3257614b3161452d565b5b600086013567ffffffffffffffff811115614b5057614b4f614532565b5b614b5c88828901614887565b9550506020614b6d88828901614558565b945050604086013567ffffffffffffffff811115614b8e57614b8d614532565b5b614b9a88828901614887565b9350506060614bab88828901614558565b925050608086013567ffffffffffffffff811115614bcc57614bcb614532565b5b614bd888828901614887565b9150509295509295909350565b6000614bf08261459a565b9050919050565b614c0081614be5565b82525050565b600061012082019050614c1c600083018c614756565b614c29602083018b614bf7565b8181036040830152614c3b818a614685565b9050614c4a6060830189614756565b8181036080830152614c5c8188614685565b9050614c6b60a0830187614756565b81810360c0830152614c7d8186614685565b9050614c8c60e0830185614756565b614c9a610100830184614756565b9a9950505050505050505050565b614cb181614be5565b82525050565b600061012083016000830151614cd060008601826149ad565b506020830151614ce36020860182614ca8565b5060408301518482036040860152614cfb82826149dc565b9150506060830151614d1060608601826149ad565b5060808301518482036080860152614d2882826149dc565b91505060a0830151614d3d60a08601826149ad565b5060c083015184820360c0860152614d5582826149dc565b91505060e0830151614d6a60e08601826149ad565b50610100830151614d7f6101008601826149ad565b508091505092915050565b60006020820190508181036000830152614da48184614cb7565b905092915050565b7f596f752063616e6e6f74206c696b6520796f7572206f776e20636f6d6d656e74600082015250565b6000614de2602083614630565b9150614ded82614dac565b602082019050919050565b60006020820190508181036000830152614e1181614dd5565b9050919050565b7f4e487b7100000000000000000000000000000000000000000000000000000000600052601160045260246000fd5b6000614e5282614537565b9150614e5d83614537565b925082821015614e7057614e6f614e18565b5b828203905092915050565b7f4e487b7100000000000000000000000000000000000000000000000000000000600052603260045260246000fd5b6000614eb582614537565b9150614ec083614537565b9250827fffffffffffffffffffffffffffffffffffffffffffffffffffffffffffffffff03821115614ef557614ef4614e18565b5b828201905092915050565b7f4e487b7100000000000000000000000000000000000000000000000000000000600052602260045260246000fd5b60006002820490506001821680614f4757607f821691505b60208210811415614f5b57614f5a614f00565b5b50919050565b7f436f6d6d656e74206c656e677468206d7573742062652061626f76652030206160008201527f6e6420756e646572203530302063686172730000000000000000000000000000602082015250565b6000614fbd603283614630565b9150614fc882614f61565b604082019050919050565b60006020820190508181036000830152614fec81614fb0565b9050919050565b6000614ffe82614537565b91507fffffffffffffffffffffffffffffffffffffffffffffffffffffffffffffffff82141561503157615030614e18565b5b600182019050919050565b7f4e487b7100000000000000000000000000000000000000000000000000000000600052603160045260246000fd5b7f4e616d65206c656e677468206d7573742062652061626f7665203020616e642060008201527f62656c6f77203335206368617273000000000000000000000000000000000000602082015250565b60006150c7602e83614630565b91506150d28261506b565b604082019050919050565b600060208201905081810360008301526150f6816150ba565b9050919050565b7f596f752068617665206e6f74206661766f757269746564207468697320646f6360008201527f756d656e74000000000000000000000000000000000000000000000000000000602082015250565b6000615159602583614630565b9150615164826150fd565b604082019050919050565b600060208201905081810360008301526151888161514c565b9050919050565b7f5469746c65206c656e677468206d7573742062652061626f7665203020616e6460008201527f2061626f76652032352063686172730000000000000000000000000000000000602082015250565b60006151eb602f83614630565b91506151f68261518f565b604082019050919050565b6000602082019050818103600083015261521a816151de565b9050919050565b7f4465736372697074696f6e206c656e677468206d7573742062652061626f766560008201527f203020616e6420756e6465722031303030206368617273000000000000000000602082015250565b600061527d603783614630565b915061528882615221565b604082019050919050565b600060208201905081810360008301526152ac81615270565b9050919050565b7f4665652063616e6e6f74206265206e6567617469766500000000000000000000600082015250565b60006152e9601683614630565b91506152f4826152b3565b602082019050919050565b60006020820190508181036000830152615318816152dc565b9050919050565b7f596f752063616e6e6f7420646f776e766f746520796f7572206f776e20646f6360008201527f756d656e74000000000000000000000000000000000000000000000000000000602082015250565b600061537b602583614630565b91506153868261531f565b604082019050919050565b600060208201905081810360008301526153aa8161536e565b9050919050565b7f596f752068617665206e6f7420766f746564206f6e207468697320646f63756d60008201527f656e740000000000000000000000000000000000000000000000000000000000602082015250565b600061540d602383614630565b9150615418826153b1565b604082019050919050565b6000602082019050818103600083015261543c81615400565b9050919050565b7f596f752068617665206e6f74206c696b6564207468697320636f6d6d656e7400600082015250565b6000615479601f83614630565b915061548482615443565b602082019050919050565b600060208201905081810360008301526154a88161546c565b9050919050565b7f596f752063616e6e6f74207570766f746520796f7572206f776e20646f63756d60008201527f656e740000000000000000000000000000000000000000000000000000000000602082015250565b600061550b602383614630565b9150615516826154af565b604082019050919050565b6000602082019050818103600083015261553a816154fe565b9050919050565b7f596f75206861766520616c7265616479206661766f757269746564207468697360008201527f20646f63756d656e740000000000000000000000000000000000000000000000602082015250565b600061559d602983614630565b91506155a882615541565b604082019050919050565b600060208201905081810360008301526155cc81615590565b905091905056fea2646970667358221220aa872fa9f0f0e1ff057385674b8649042a4733743c35b62a3ac71304fffe462b64736f6c634300080a0033",
  "immutableReferences": {},
  "source": "// SPDX-License-Identifier: MIT\r\npragma solidity >=0.8.0;\r\n\r\ncontract DocuPay {\r\n  struct Document {\r\n    uint256 docId;\r\n    address payable uploader;\r\n    string title;\r\n    uint256 date;\r\n    string description;\r\n    uint256 fee;\r\n    string file;\r\n    uint256 votes;\r\n    uint256 favourites;\r\n  }\r\n\r\n  struct Comment {\r\n    uint256 commentId;\r\n    address commenter;\r\n    uint256 date;\r\n    string commentMsg;\r\n    uint256 likes;\r\n  }\r\n\r\n  Document[] public documents;\r\n  Comment[] public comments;\r\n\r\n  // Users have a name and reputation; documents they have uploaded, purchased, voted on, and favourited are also stored\r\n  mapping(address => string) public name;\r\n  mapping(address => uint256) public reputation;\r\n  mapping(address => uint256[]) public documentsUploaded;\r\n  mapping(address => uint256[]) public documentsPurchased;\r\n  mapping(address => uint256[]) public documentsUpvoted;\r\n  mapping(address => uint256[]) public documentsDownvoted;\r\n  mapping(address => uint256[]) public documentsFavourited;\r\n  mapping(uint256 => uint256[]) public commentsOnDocument;\r\n  mapping(address => uint256[]) public commentsLiked;\r\n\r\n  // Getters\r\n  function getDocumentById(uint256 docId) public view returns(Document memory) {\r\n    // The document's index in the array starts from zero, which is the ID minus one\r\n    return documents[docId - 1];\r\n  }\r\n\r\n  function getName(address user) public view returns(string memory) {\r\n    return name[user];\r\n  }\r\n\r\n  function getReputation(address user) public view returns(uint256) {\r\n    return reputation[user];\r\n  }\r\n\r\n  function getTotalDocumentsCount() public view returns(uint256) {\r\n    return documents.length;\r\n  }\r\n\r\n  function getDocumentsUploadedCount(address user) public view returns(uint256) {\r\n    return documentsUploaded[user].length;\r\n  }\r\n\r\n  function getDocumentUploaded(address user, uint256 docIndex) public view returns(uint256) {\r\n    return documentsUploaded[user][docIndex];\r\n  }\r\n\r\n  function getDocumentsPurchasedCount(address user) public view returns(uint256) {\r\n    return documentsPurchased[user].length;\r\n  }\r\n\r\n  function getDocumentPurchased(address user, uint256 docIndex) public view returns(uint256) {\r\n    return documentsPurchased[user][docIndex];\r\n  }\r\n\r\n  function getDocumentsFavouritedCount(address user) public view returns(uint256) {\r\n    return documentsFavourited[user].length;\r\n  }\r\n\r\n  function getDocumentFavourited(address user, uint256 docIndex) public view returns(uint256) {\r\n    return documentsFavourited[user][docIndex];\r\n  }\r\n\r\n  function getCommentById(uint256 commentId) public view returns(Comment memory) {\r\n    uint256 commentIndex = 0;\r\n\r\n    // Search for a matching comment ID\r\n    for (uint256 i = 0; i < comments.length; i++) {\r\n      if (comments[i].commentId == commentId)\r\n        commentIndex = i;\r\n    }\r\n\r\n    return comments[commentIndex];\r\n  }\r\n\r\n  function getCommentCount(uint256 docId) public view returns(uint256) {\r\n    return commentsOnDocument[docId].length;\r\n  }\r\n\r\n  function getCommentOnDocument(uint256 docId, uint256 commentId) public view returns(uint256) {\r\n    uint256 commentIndex = 0;\r\n\r\n    // Search for a matching comment ID\r\n    for (uint256 i = 0; i < commentsOnDocument[docId].length; i++) {\r\n      if (commentsOnDocument[docId][i] == commentId)\r\n        commentIndex = i;\r\n    }\r\n\r\n    return commentsOnDocument[docId][commentIndex];\r\n  }\r\n\r\n  // Editing the Display Name\r\n  function changeName(string memory newName) public {\r\n    require(bytes(newName).length > 0 && bytes(newName).length <= 35, \"Name length must be above 0 and below 35 chars\");\r\n\r\n    name[msg.sender] = newName;\r\n  }\r\n\r\n  // Uploading a Document\r\n  function uploadDocument(string memory title, uint256 date, string memory description, uint256 fee, string memory file) public {\r\n    require(bytes(title).length > 0 && bytes(title).length <= 25, \"Title length must be above 0 and above 25 chars\");\r\n    require(bytes(description).length > 0 && bytes(description).length <= 1000, \"Description length must be above 0 and under 1000 chars\");\r\n    require(fee >= 0, \"Fee cannot be negative\");\r\n\r\n    // Add the document\r\n    documents.push(Document(documents.length + 1, payable(msg.sender), title, date, description, fee, file, 0, 0));\r\n    documentsUploaded[msg.sender].push(documents.length + 1);\r\n  }\r\n\r\n  // Purchasing a Document\r\n  function purchaseDocument(uint256 docId) public {\r\n    documentsPurchased[msg.sender].push(docId);\r\n  }\r\n\r\n  function isDocumentPurchased(address user, uint256 docId) public view returns(bool) {\r\n    // Check if the user has purchased the document previously\r\n    for (uint256 i = 0; i < documentsPurchased[user].length; i++) {\r\n      if (documentsPurchased[user][i] == docId)\r\n        return true;\r\n    }\r\n\r\n    return false;\r\n  }\r\n\r\n  function canView(address user, uint256 docId) public view returns(bool) {\r\n    // If the user uploaded the document or they have purchased the document before, they can view it\r\n    if (user == getDocumentById(docId).uploader || isDocumentPurchased(user, docId))\r\n      return true;\r\n\r\n    return false;\r\n  }\r\n\r\n  // Voting On a Document\r\n  function upvoteDocument(uint256 docId) public {\r\n    // Ensure that the voter is not the uploader\r\n    require(msg.sender != getDocumentById(docId).uploader, \"You cannot upvote your own document\");\r\n\r\n    // Remove the downvote from the document first, if any\r\n    if (isDocumentDownvoted(docId) == true) {\r\n      uint256 docIndex = 0;\r\n\r\n      for (uint256 i = 0; i < documentsDownvoted[msg.sender].length; i++) {\r\n        if (documentsDownvoted[msg.sender][i] == docId)\r\n          docIndex = i;\r\n      }\r\n\r\n      // Move the document from the last position to the deleted document's position, then pop the array to shrink it\r\n      documentsDownvoted[msg.sender][docIndex] = documentsDownvoted[msg.sender][documentsDownvoted[msg.sender].length - 1];\r\n      documentsDownvoted[msg.sender].pop();\r\n    }\r\n\r\n    // Increase the number of votes and the uploader's reputation\r\n    documentsUpvoted[msg.sender].push(docId);\r\n    documents[docId - 1].votes += 1;\r\n    reputation[documents[docId - 1].uploader] += 10;\r\n  }\r\n\r\n  function downvoteDocument(uint256 docId) public {\r\n    // Ensure that the voter is not the uploader\r\n    require(msg.sender != getDocumentById(docId).uploader, \"You cannot downvote your own document\");\r\n\r\n    // Remove any upvotes from the document first\r\n    if (isDocumentUpvoted(docId) == true) {\r\n      uint256 docIndex = 0;\r\n\r\n      for (uint256 i = 0; i < documentsUpvoted[msg.sender].length; i++) {\r\n        if (documentsUpvoted[msg.sender][i] == docId)\r\n          docIndex = i;\r\n      }\r\n\r\n      documentsUpvoted[msg.sender][docIndex] = documentsUpvoted[msg.sender][documentsUpvoted[msg.sender].length - 1];\r\n      documentsUpvoted[msg.sender].pop();\r\n    }\r\n\r\n    // Decrease the number of votes\r\n    documentsDownvoted[msg.sender].push(docId);\r\n\r\n    // Prevent the document's vote count from going below zero\r\n    if ((documents[docId - 1].votes -= 1) <= 0)\r\n      documents[docId - 1].votes == 0;\r\n    else\r\n      documents[docId - 1].votes -= 1;\r\n\r\n    // Check if the user's reputation will be less than zero once their reputation has been decreased\r\n    if ((reputation[documents[docId - 1].uploader] -= 5) <= 0)\r\n      reputation[documents[docId - 1].uploader] == 0;\r\n    else\r\n      reputation[documents[docId - 1].uploader] -= 5;\r\n  }\r\n\r\n  function removeVoteFromDocument(uint256 docId) public {\r\n    // Ensure that the voter has either upvoted or downvoted on this document\r\n    require(isDocumentUpvoted(docId) == true || isDocumentDownvoted(docId) == true, \"You have not voted on this document\");\r\n\r\n    uint256 docIndex = 0;\r\n\r\n    if (isDocumentUpvoted(docId) == true) {\r\n      // Search for the document's position in the array\r\n      for (uint256 i = 0; i < documentsUpvoted[msg.sender].length; i++) {\r\n        if (documentsUpvoted[msg.sender][i] == docId)\r\n          docIndex = i;\r\n      }\r\n\r\n      // Remove the vote from the list of documents upvoted\r\n      documentsUpvoted[msg.sender][docIndex] = documentsUpvoted[msg.sender][documentsUpvoted[msg.sender].length - 1];\r\n      documentsUpvoted[msg.sender].pop();\r\n\r\n      // Reduce the number of votes\r\n      if ((documents[docId - 1].votes -= 1) <= 0)\r\n        documents[docId - 1].votes == 0;\r\n      else\r\n        documents[docId - 1].votes -= 1;\r\n\r\n      // Check if the user's reputation will be less than zero once their reputation has been decreased\r\n      if ((reputation[documents[docId - 1].uploader] -= 5) <= 0)\r\n        reputation[documents[docId - 1].uploader] == 0;\r\n      else\r\n        reputation[documents[docId - 1].uploader] -= 5;\r\n    } else if (isDocumentDownvoted(docId) == true) {\r\n      // Search for the document's position in the array\r\n      for (uint256 i = 0; i < documentsDownvoted[msg.sender].length; i++) {\r\n        if (documentsDownvoted[msg.sender][i] == docId)\r\n          docIndex = i;\r\n      }\r\n\r\n      // Remove the vote from the list of documents downvoted\r\n      documentsDownvoted[msg.sender][docIndex] = documentsDownvoted[msg.sender][documentsDownvoted[msg.sender].length - 1];\r\n      documentsDownvoted[msg.sender].pop();\r\n\r\n      // Increase the uploader's reputation\r\n      reputation[documents[docId - 1].uploader] += 5;\r\n    }\r\n  }\r\n\r\n  function isDocumentUpvoted(uint256 docId) public view returns(bool) {\r\n    // Check if the user has upvoted the document\r\n    for (uint256 i = 0; i < documentsUpvoted[msg.sender].length; i++) {\r\n      if (documentsUpvoted[msg.sender][i] == docId)\r\n        return true;\r\n    }\r\n\r\n    return false;\r\n  }\r\n\r\n  function isDocumentDownvoted(uint256 docId) public view returns(bool) {\r\n    // Check if the user has downvoted the document\r\n    for (uint256 i = 0; i < documentsDownvoted[msg.sender].length; i++) {\r\n      if (documentsDownvoted[msg.sender][i] == docId)\r\n        return true;\r\n    }\r\n\r\n    return false;\r\n  }\r\n\r\n  // Favouriting a Document\r\n  function favouriteDocument(uint256 docId) public {\r\n    // Check if the document has already been favourited\r\n    bool isDocumentFound = false;\r\n\r\n    for (uint256 i = 0; i < documentsFavourited[msg.sender].length; i++) {\r\n      if (documentsFavourited[msg.sender][i] == docId)\r\n        isDocumentFound = true;\r\n    }\r\n\r\n    require(isDocumentFound == false, \"You have already favourited this document\");\r\n\r\n    // Users can favourite a document to save and look at later, whether they have purchased it or not\r\n    documentsFavourited[msg.sender].push(docId);\r\n\r\n    // Increase the favourites count\r\n    documents[docId - 1].favourites += 1;\r\n  }\r\n\r\n  function unfavouriteDocument(uint256 docId) public {\r\n    // Check if the document has been favourited first\r\n    uint256 docIndex = 0;\r\n    bool isDocumentFound = false;\r\n\r\n    for (uint256 i = 0; i < documentsFavourited[msg.sender].length; i++) {\r\n      if (documentsFavourited[msg.sender][i] == docId) {\r\n        docIndex = i;\r\n        isDocumentFound = true;\r\n      }\r\n    }\r\n\r\n    require(isDocumentFound == true, \"You have not favourited this document\");\r\n\r\n    // Remove the document ID from the array of favourited documents\r\n    documentsFavourited[msg.sender][docIndex] = documentsFavourited[msg.sender][documentsFavourited[msg.sender].length - 1];\r\n    documentsFavourited[msg.sender].pop();\r\n\r\n    // Reduce the favourites count\r\n    documents[docId - 1].favourites -= 1;\r\n  }\r\n\r\n  function isDocumentFavourited(uint256 docId) public view returns(bool) {\r\n    // Check if the user has favourited the document\r\n    for (uint256 i = 0; i < documentsFavourited[msg.sender].length; i++) {\r\n      if (documentsFavourited[msg.sender][i] == docId)\r\n        return true;\r\n    }\r\n\r\n    return false;\r\n  }\r\n\r\n  // Commenting On a Document\r\n  function sendComment(uint256 docId, uint256 date, string memory commentMsg) public {\r\n    require(bytes(commentMsg).length > 0 && bytes(commentMsg).length < 500, \"Comment length must be above 0 and under 500 chars\");\r\n\r\n    // Determine what ID the comment will have\r\n    if (comments.length == 0)\r\n      comments.push(Comment(comments.length + 1, msg.sender, date, commentMsg, 0));\r\n    else\r\n      comments.push(Comment(comments[comments.length].commentId + 1, msg.sender, date, commentMsg, 0));\r\n\r\n    // Add the comment\r\n    return commentsOnDocument[docId].push(comments.length);\r\n  }\r\n\r\n  function deleteComment(uint256 docId, uint256 commentId) public {\r\n    // Search for and delete the comment in the \"comments\" array\r\n    uint256 commentIndex = 0;\r\n\r\n    for (uint256 i = 0; i < comments.length; i++) {\r\n      if (comments[i].commentId == commentId)\r\n        commentIndex = i;\r\n    }\r\n\r\n    comments[commentIndex] = comments[comments.length - 1];\r\n    comments.pop();\r\n\r\n    // Search for and delete the comment in the \"commentsOnDocument\" mapping\r\n    for (uint256 i = 0; i < commentsOnDocument[docId].length; i++) {\r\n      if (commentsOnDocument[docId][i] == commentId)\r\n        commentIndex = i;\r\n    }\r\n\r\n    commentsOnDocument[docId][commentIndex] = commentsOnDocument[docId][commentsOnDocument[docId].length - 1];\r\n    commentsOnDocument[docId].pop();\r\n  }\r\n\r\n  function likeComment(uint256 commentId) public {\r\n    // Ensure that the voter is not the commenter\r\n    require(msg.sender != getCommentById(commentId).commenter, \"You cannot like your own comment\");\r\n\r\n    // Increase the number of likes and the commenter's reputation\r\n    commentsLiked[msg.sender].push(commentId);\r\n    comments[commentId - 1].likes += 1;\r\n    reputation[comments[commentId - 1].commenter] += 1;\r\n  }\r\n\r\n  function removeLikeFromComment(uint256 commentId) public {\r\n    // Ensure that the voter has liked this comment\r\n    require(isCommentLiked(commentId) == true, \"You have not liked this comment\");\r\n\r\n    uint256 commentIndex = 0;\r\n\r\n    // Search for the comment's position in the array\r\n    for (uint256 i = 0; i < commentsLiked[msg.sender].length; i++) {\r\n      if (commentsLiked[msg.sender][i] == commentId)\r\n        commentIndex = i;\r\n    }\r\n\r\n    // Remove the like from the list of comments liked\r\n    commentsLiked[msg.sender][commentIndex] = commentsLiked[msg.sender][commentsLiked[msg.sender].length - 1];\r\n    commentsLiked[msg.sender].pop();\r\n\r\n    // Reduce the number of likes\r\n    if ((comments[commentId - 1].likes -= 1) <= 0)\r\n      comments[commentId - 1].likes == 0;\r\n    else\r\n      comments[commentId - 1].likes -= 1;\r\n\r\n    // Check if the commenter's reputation will be less than zero once their reputation has been decreased\r\n    if ((reputation[comments[commentId - 1].commenter] -= 1) <= 0)\r\n      reputation[comments[commentId - 1].commenter] == 0;\r\n    else\r\n      reputation[comments[commentId - 1].commenter] -= 1;\r\n  }\r\n\r\n  function isCommentLiked(uint256 commentId) public view returns(bool) {\r\n    // Check if the user has liked the comment\r\n    for (uint256 i = 0; i < commentsLiked[msg.sender].length; i++) {\r\n      if (commentsLiked[msg.sender][i] == commentId)\r\n        return true;\r\n    }\r\n\r\n    return false;\r\n  }\r\n}",
  "sourcePath": "C:\\Users\\Cate\\Projects\\docupay\\contracts\\DocuPay.sol",
  "compiler": {
    "name": "solc",
    "version": "0.8.10+commit.fc410830.Emscripten.clang"
  },
  "schemaVersion": "3.4.3",
  "updatedAt": "2023-03-18T13:39:36.780Z",
  "networkType": "ethereum",
  "devdoc": {
    "kind": "dev",
    "methods": {},
    "version": 1
  },
  "userdoc": {
    "kind": "user",
    "methods": {},
    "version": 1
  }
}